:020000040800F2
:1000000000000220894F0008C12C0008C32C000802
:10001000C52C0008C72C0008C92C000800000000EF
:10002000000000000000000000000000CB2C0008D1
:10003000CD2C000800000000CF2C0008D12C0008B7
:10004000D94F0008D94F0008D94F0008D94F0008F0
:10005000D94F0008D94F0008D92C0008D94F000803
:10006000D94F0008D94F0008D94F0008D94F0008D0
:10007000D94F0008D94F0008D94F0008D94F0008C0
:10008000D94F0008D94F0008D94F0008D94F0008B0
:10009000D94F0008D94F0008D94F0008D94F0008A0
:1000A000D94F0008E52C0008D94F0008D94F0008A7
:1000B000F52C0008052D0008152D0008D94F000863
:1000C000D94F0008D94F0008D94F0008D94F000870
:1000D000D94F0008252D0008D94F0008D94F000836
:1000E000D94F0008D94F0008D94F0008D94F000850
:1000F000352D0008D94F0008D94F0008D94F000806
:10010000D94F0008D94F0008452D0008D94F0008E5
:10011000D94F0008D94F0008D94F0008D94F00081F
:10012000D94F0008D94F0008D94F0008D94F00080F
:10013000D94F0008D94F0008D94F0008D94F0008FF
:10014000D94F0008D94F0008D94F0008D94F0008EF
:10015000D94F0008D94F0008D94F0008D94F0008DF
:10016000D94F0008D94F0008D94F0008D94F0008CF
:10017000D94F0008D94F0008D94F000800000000EF
:08018000D94F0008D94F000817
:1001C0000348044B834202D0034B03B118477047E6
:1001D0006800002068000020000000000548064B71
:1001E0001B1AD90F01EBA301491002D0034B03B135
:1001F00018477047680000206800002000000000D9
:1002000010B5064C237843B9FFF7DAFF044B13B15E
:100210000448AFF300800123237010BD6800002064
:1002200000000000DC4F000808B5044B1BB1044976
:100230000448AFF30080BDE80840CFE700000000AD
:100240006C000020DC4F000870B50F4B0F4DAB4227
:10025000A3EB050607D0B610002455F8043B013483
:100260009847A642F9D804F0B9FE094D094B5E1B28
:10027000AB424FEAA60606D0002455F8043B0134F1
:100280009847A642F9D870BD785100087851000807
:10029000785100087C5100080EB470B59DB021ACB7
:1002A00000254FF4017254F8046BADF814201B952F
:1002B0000290069000F064F80B4B0B930B4B0390ED
:1002C0004FF6FF710790ADF8161018680F9532467B
:1002D000234602A91495019400F026FB1DB0BDE849
:1002E000704003B0704700BF050800080000002000
:1002F0000CB4F0B59DB022AC00254FF40173064656
:10030000084654F8047BADF81430029106911B9511
:1003100000F036F80346039307930A4B0B934FF60E
:10032000FF73ADF816303A463046234602A90F95C2
:100330001495019400F0F8FA1DB0BDE8F04002B049
:10034000704700BF05080008000000000000000022
:10035000000000000000000000000000000000009D
:10036000000000000000000000000000000000008D
:10037000000000000000000000000000000000007D
:1003800030B490F800F020F007016FF0000C10F08E
:10039000070491F820F040F048804FF000046FF01F
:1003A0000700D1E9002391F840F000F1080082FA3B
:1003B0004CF2A4FA8CF283FA4CF3A2FA8CF34BBB06
:1003C000D1E9022382FA4CF200F10800A4FA8CF27F
:1003D00083FA4CF3A2FA8CF3E3B9D1E9042382FA4D
:1003E0004CF200F10800A4FA8CF283FA4CF3A2FA62
:1003F0008CF37BB9D1E9062301F1200182FA4CF29A
:1004000000F10800A4FA8CF283FA4CF3A2FA8CF300
:10041000002BC6D0002A04BF04301A4612BAB2FA22
:1004200082F200EBD20030BC7047D1E9002304F027
:100430000305C4F100004FEAC50514F0040F91F85C
:1004400040F00CFA05F562EA05021CBF63EA0503F9
:1004500062464FF00004AAE7830730B547D0541E28
:10046000002A3ED0CAB2034601E0013C39D303F86A
:10047000012B9D07F9D1032C2CD9CDB205EB052515
:100480000F2C05EB054535D9A4F1100222F00F0C15
:1004900003F1100EE6444FEA121C1A46C2E9005559
:1004A000C2E9025510327245F8D10CF1010214F084
:1004B0000C0F03EB021204F00F0C13D0ACF1040389
:1004C00023F003030433134442F8045B9342FBD14B
:1004D0000CF003042CB1C9B21C4403F8011BA34265
:1004E000FBD130BD64461346002CF4D1F9E7034636
:1004F0001446C0E71A46A446E0E700BF000000002B
:1005000002780B78012A28BF9A4240F0D8806DE922
:10051000044540EA0104CDE902676FF0000C4FEAA0
:1005200044721AB380EA010414F0070F6BD100F093
:10053000070420F0070004F0030521F007014FEA4B
:10054000C505F0E8042314F0040FF1E804670CFA81
:1005500005F462EA040266EA04060BD063EA0403C7
:10056000624667EA0407664604E000BFF0E8042339
:10057000F1E8046782FA4CF582EA0604A4FA8CF4E6
:100580006CBB83FA4CF583EA0705A5FA8CF595B99F
:1005900050E9022351E9026782FA4CF582EA060427
:1005A000A4FA8CF483FA4CF583EA0705A5FA8CF5D6
:1005B0002543DBD09CB92DBAB5FA85F424F00704A5
:1005C00027FA04F1DDE9026723FA04F303F0FF00E0
:1005D00001F0FF01FDE80445A0EB0100704724BADB
:1005E000B4FA84F424F0070426FA04F1DDE9026782
:1005F00022FA04F202F0FF0001F0FF01FDE80445D9
:10060000A0EB0100704714F0030F3CD110F003047D
:1006100028D150F8082B51F8083B82FA4CF582EAB1
:100620000305A5FA8CF55DB950F8042C51F8043C8B
:1006300082FA4CF582EA0305A5FA8CF5002DE8D084
:100640002DBAB5FA85F424F0070423FA04F122FA4E
:1006500004F202F0FF0001F0FF01FDE80445A0EB09
:10066000010070474FEAC40420F0030050F8082B43
:1006700021F0030151F8083B0CFA04F462EA040289
:1006800063EA0403C9E710F003041DD0A1EB0401E1
:1006900020F00300E40750F8042B06D012D28B7828
:1006A0005FFAA2F4E41A06D12BB1CB785FFAB2F468
:1006B000E41A00D133B920465DF8104B7047A2EB25
:1006C0000300704701F1040150F8042BCC0721F01E
:1006D000030151F8043B48D824D222F07F4482FA27
:1006E0004CF594EA1325A5FA8CF50AD165B951F8B1
:1006F000043B84EA0204B4EB036F0ED150F8042BE0
:10070000EBE74FEA132355E035F07F454DD10878EC
:10071000FDE80445C0F1000070474FEA126203F0A3
:10072000FF0347E002EA1C4482FA4CF594EA1345C1
:10073000A5FA8CF50AD165B951F8043B84EA0204A4
:10074000B4EB034F0CD150F8042BEBE74FEA134303
:1007500030E015EA1C4528D10B884FEA124229E007
:100760004FEA124203EA1C4324E002F0FF0482FA3B
:100770004CF594EA1365A5FA8CF50AD165B951F8E0
:10078000043B84EA0204B4EB032F09D150F8042B94
:10079000EBE74FEA13630DE015F0FF0F05D10B688F
:1007A0004FEA122223F07F4304E04FF00000FDE8FF
:1007B0000445704712BA1BBA82FA4CF482EA030469
:1007C000A4FA8CF5B5FA85F402FA04F203FA04F3FC
:1007D0004FEA1260FDE80445A0EB1360704700BFCC
:1007E00010B50C46B1F90E1001F00AF8002803DB31
:1007F000636D0344636510BDA38923F48053A38113
:1008000010BD00BF002070472DE9F0410C46B1F942
:100810000C101F46CB05054616460BD421F480511B
:10082000A1813B46B4F90E1032462846BDE8F0419E
:1008300001F008B9B4F90E100223002201F046F8C5
:10084000B4F90C10EAE700BF10B50C46B1F90E1070
:1008500001F03CF8B4F90C30421C0EBF23F4805375
:1008600043F480536065A38110BD00BFB1F90E1041
:1008700000F0B2BC38B54B1C1AD09389144623F053
:1008800020035268A381636BCDB2A3B1A36B9342E3
:1008900009DD23685A1E226003F8015C6368013396
:1008A0006360284638BD214601F026F80028F0D0C4
:1008B0004FF0FF35F5E7236921682BB18B4203D256
:1008C00011F8013CAB420ED02346C4E90F1204F1EB
:1008D000440003226063A26303F8465F0122C4E977
:1008E0000032284638BD01390132C4E90012D8E788
:1008F00010B50C46496B69B104F14403994201D02B
:1009000000F0F4FD236C63600020606313B1E36BBF
:10091000236010BDA2892369002142F0200261609A
:10092000A2814FF0FF30F3E72DE9F047ADF5247DCC
:1009300092F8009001930023CDE94533864BA193B3
:100940000DF10808854BA293CDF81C81B9F1000F79
:1009500014D0834F17F80930924613F00803064667
:100960000C460AF101052ED1B9F1250F45D0636877
:10097000002B08DD23681A784A450FD045980DF5FD
:10098000247DBDE8F087A29B214630469847002889
:1009900040F00B8123681A784A45EFD10133236078
:1009A0006368013B6360469B0133AA4646939AF80D
:1009B0000090B9F1000FE1D017F8093013F00803E7
:1009C0000AF10105D0D062680DE023681A78BA5C9C
:1009D000110703F101030ED562684699013AC4E993
:1009E000003201314691002A21463046EDDCA29BBF
:1009F00098470028E9D0AA46D9E7449342939AF849
:100A000001102A2905D1102342939AF802100AF105
:100A10000205A1F13003092B0DD8002303EB83035A
:100A200001EB4301A1F13003449315F8011FA1F13B
:100A30003002092AF2D9DFF82CA10322504600F037
:100A40008FFE38B1429AA0EB0A0001238340134382
:100A500001354293AA461AF8013B782B00F28480B4
:100A6000DFE813F0A9008200820082008200820089
:100A70008200820082008200820082008200820066
:100A80008200820082008200820082008200820056
:100A90008200820082008200820082008200820046
:100AA00082008200820082008200820082001101A6
:100AB0008200820082008200820082008200820026
:100AC0008200820082008200820082008200820016
:100AD0008200820082008200820082008200820006
:100AE0008200820082008200820082008200C700B1
:100AF000C700C7008200820082008200820082005C
:100B000082008200820082008200820082008200D5
:100B100082008200CA0082008200FC008200820003
:100B2000820082008200820082000701DE00C7008E
:100B3000C700C70082000E0182008200820082008E
:100B4000E000EE00F20082008200F9008200DE0088
:100B500082008200CA0000BF75080008F108000882
:100B60000150000834510008032348930A2343939B
:100B70006368002B4DDD429B580624D5489B022B11
:100B800040F38380042B40F38780474B002B3FF4D6
:100B90000EAF01AB224642A93046AFF300800128D8
:100BA0003FF4ECAE02287FF402AF459818B1A38958
:100BB0005B067FF5E4AE4FF0FF30E0E6A29B3046E7
:100BC00098470028F1D122681378FB5C1907D5D526
:100BD00063684699013B481C002B214646906360A0
:100BE00002F10102EADD22601378FB5C1907C5D52A
:100BF000EEE705234893BBE7429A42F40072429223
:100C000010226E2B43921DD8032348936368002B58
:100C1000B1DCA29B2146304698470028ABD0C4E700
:100C20000A22EEE7429BDA063FF5C1AE019A4699E9
:100C3000101D0190DB0713684CBF19801960B6E6E0
:100C4000082343930423E0E7429B43F40873429351
:100C500010234393F6E70223489389E75146404621
:100C600000F0E4FD429B43F040034293824601239F
:100C7000CBE7429B43F0400342930023489377E73E
:100C800000234393C0E7554671E601AB224642A9D3
:100C9000304600F00BF882E701AB224642A930460D
:100CA00000F06CF87BE700BF000000002DE9F8437E
:100CB0000D461446AA68896907462AB9002914BF57
:100CC0004FF0FF320122AA602A68D00603D41A68C6
:100CD000101D18601668DFF8A0804FF0000901B3FE
:100CE000012937D002293BD123681A7818F802204D
:100CF000120735D42A68D10609F1010903D41B78FB
:100D000006F8013B23686168AA6801390133013A9A
:100D1000C4E90031AA606AB1002904DDA96900298B
:100D2000DED12368E6E7D5F880312146384698477A
:100D30000028F3D02B6813F0100305D1EA680132C4
:100D4000EA60AA6902B133702B694B4400202B6121
:100D5000BDE8F88323686A691878125C002AC9D153
:100D6000B9F1000FE6D101290846F1D02B6813F044
:100D70001003E9D1E2E700BF015000082DE9F04F70
:100D800087B00C46074615468648874A00938B680D
:100D90008969864E032908BF1046019096E807002E
:100DA00003F1FF3C0DF10C0ABCF5AE7F8AE80700A9
:100DB00040F2B0806FF4AE7103EB010940F25D13B5
:100DC000A360A0464FF0000B58F81C2B42F4506271
:100DD000226046462B68DAF800001978022200F0FB
:100DE000BFFC50B3BBF1010F0CD0BBF1020F00F000
:100DF000B280A3685A1EA260A3B94FF0010B0AF19A
:100E0000040AE7E7D4E900321AB9082243F4007370
:100E1000626023F4A0632360A3685A1EA260002BC3
:100E200000F08A802B685A1C2A601B7806F8013B68
:100E30006B68013B002B6B6073DD0BF1010BBBF1A9
:100E4000030FDCD16168002967D0C1F11001584B54
:100E50006069194400F0EAFCA368002B00F09F8051
:100E60004FF0000A06E02B6801332B60A368013BBA
:100E7000A36003B3D5F800E062699EF800C012F8E1
:100E80000C1022683046B9B1BCF1300F22F4106169
:100E900055D021609EF8003000F8013B06466B6893
:100EA000013B002B294638466B60DCDCD4F88031EE
:100EB00098470028DAD02268D1050CD5464507D9D5
:100EC00016F8011CD4F87C312A463846013E984772
:100ED000464562D0226812F0100211D13270636868
:100EE000019D38464146A84723689A0646D5009991
:100EF0000B681A1D0A601B681860E3680133E36021
:100F00002369A6EB0806564433442361002007B04A
:100F1000BDE8F08F4FF0000953E70A236360062114
:100F200095E7D4F88031294638469847002884D080
:100F300022684FF0000ABFE74FF0020B5FE712058F
:100F4000A7D501330AF1010AB9F1000FA7D0A360B8
:100F500009F1FF39A3E7236803F4C062B2F5007F0B
:100F60007FF470AF43F480732360A3681022626043
:100F70005A1EA260002B3FF465AF53E7009D2A681C
:100F8000DF0702F1040103D5296013681880B4E774
:100F9000009B196013681860AFE70120B7E79A4615
:100FA00089E700BFC91B0008E1160008F44F0008DC
:100FB0003851000800207047024A0349034800F0F6
:100FC000A9BB00BF5000002021130008040000202E
:100FD0000C4B4168994210B5044601D000F0A0F9CD
:100FE000A168094B994202D0204600F099F9E168C6
:100FF000064B994204D02046BDE8104000F090B95D
:1010000010BD00BF84000020EC000020540100202F
:10101000002070472DE9F8432A4C2B49DFF8BC909B
:10102000DFF8BC80294FC4F83811002504230822BA
:10103000294604F15C00264EE360C4E90055C4E98A
:101040000455A5606566A561FFF706FA214B636745
:101050000822294604F1C400C4E90849C4E90A8702
:10106000C4E91A55C4E91E552567C4F8CC50C4F824
:1010700080502663FFF7F0F9174BC4F8DC3029469F
:1010800004F16803082204F59670C4F88830C4E9B6
:101090002398C4E92576C4E93455C4E93855C4F821
:1010A000D850C4F83451C4F8E850FFF7D5F904F12A
:1010B000D003C4E93D98C4E93F76C4F8F030BDE8F8
:1010C000F88300BF84000020B90F00084908000819
:1010D0006D0800080900010012000200E107000885
:1010E00009080008F8B5254BD3F838310646002B1F
:1010F0003CD0234FD7E90134013B04D51DE05A1CF5
:1011000004F1680419D0B4F90C50013B002DF6D15C
:101110001C4BE360C4E90155C4E9045565662560CC
:10112000A5610822294604F15C00FFF795F9C4E99E
:101130000D55C4E912552046F8BD3D680DB12F4646
:10114000D8E74FF4D671304600F050F9044680B12C
:101150000423C0E900530C302946A0604FF4D0723C
:101160002546FFF779F93C602F46C3E7FFF752FFAA
:10117000BFE70C2338603360DDE700BF8400002048
:10118000500000200100FFFF036A03B17047044BC9
:10119000044AD3F838310262002BF7D13AE700BF96
:1011A00084000020D10F0008704700BF704700BFC7
:1011B000024A0349002000F0ADBA00BF50000020F1
:1011C000B50F0008024A0349002000F0A3BA00BF8F
:1011D000500000201110000838B5074D00220446C9
:1011E00008462A6000F0E4FD431C00D038BD2B689F
:1011F000002BFBD0236038BDC8010020B1F90C30B2
:101200002DE9F0411E070C4680463DD44A68002A6D
:1012100056DDE56A002D34D00022D8F80060C8F809
:10122000002013F48052216A57D101234046A84779
:10123000451C024666D0B4F90C30E56A216A5807AD
:1012400005D56368D21A636B0BB1236CD21A0023E5
:101250004046A847431C42D00023636023692360B3
:10126000A389DF0400D56065616BC8F8006041B1F7
:1012700004F14403994202D0404600F037F90023BC
:1012800063630020BDE8F0810E69002EF9D09B0752
:101290000D6808BF4B690E6018BF0023AD1B8B6043
:1012A0000BE02B463246216AA76A4046B847B0F1A8
:1012B000000CA5EB0C05664406DD002DF1DCE0E733
:1012C0000A6C002AA5DCDCE7B4F90C3043F04003DB
:1012D000A3814FF0FF30BDE8F081626DAFE7D8F831
:1012E0000010B4F90C301D29F0D80C4ACA40D507BB
:1012F000ECD52269226000226260DA04B4D50029AC
:10130000B1D0B1E7D8F80030002B94D01D2B01D01C
:10131000162BD9D1C8F80060B3E700BF0100402008
:101320000B69B3B110B5044682B008B1036A5BB172
:10133000B1F90C3013B9002002B010BD204602B044
:10134000BDE81040FFF75ABF0191FFF71DFF01995B
:10135000EEE70020704700BFB8B138B50D4A036909
:10136000156804462BB10DB12B6A53B1B4F90C309A
:101370000BB9002038BD21462846BDE83840FFF7AC
:101380003DBF2846FFF700FFF0E7034A0349044842
:1013900000F0C0B900000020500000202113000818
:1013A0000400002070B5104E336805460C46B3B1FA
:1013B0002146284600F05CFB431C0CD0C41C24F0E2
:1013C0000304A04205D0211A284600F051FB013049
:1013D00001D0204670BD4FF0FF34204670BD194645
:1013E00000F046FB3060E3E7C00100202DE9F84340
:1013F000CD1C25F0030508350C2D38BF0C25002D1C
:10140000064618DBA94216D8DFF8DC8000F05AFA4D
:10141000D8F80420A2B1144603E0636822467BB1E9
:101420001C4623685B1BF8D40B2B1FD894426368BF
:1014300054D053600CE00C2333600020BDE8F883E7
:1014400029463046FFF7AEFF431C044619D005601D
:10145000304600F039FA04F10B00231D20F007009C
:10146000C21A1CBF1B1AA350BDE8F883611994422D
:10147000256014BF5160C8F80410635163684B6065
:10148000E6E7D8F804701FB33C467F68002FFBD115
:1014900023683946304604EB030900F0E9FA814538
:1014A00016D12368ED1A29463046FFF77BFF01303D
:1014B0000ED02368D8F804202B442360536883B1EE
:1014C000A34203D01A465B689C42FBD10023B0E7DD
:1014D0000C233360304600F0F7F9AEE7C8F804306B
:1014E000B6E7C8F80470B3E7C0010020002950D067
:1014F00038B551F8043C0C1F002BB8BFE418054662
:1015000000F0E0F9274A13682BB1A3420CD92168F7
:10151000601883422CD0636028461460BDE83840D0
:1015200000F0D2B9A3420FD81A465B68002BF9D15C
:1015300011685018844217D02CD363605460284639
:10154000BDE8384000F0C0B911685018A04214D06E
:1015500020D8216860188342EFD118685B6808447E
:10156000C4E900035460EAE723680B441360E6E72C
:1015700018685B6808442060CDE720680144501873
:1015800083421160DBD1D3E900040144C2E90014B5
:10159000D5E770470C232B602846BDE8384000F0A3
:1015A00093B900BFC4010020242B2DE9F84F43D884
:1015B000012B41D0804649481F468E4675461EF88D
:1015C00001BB10F80B4014F00804F7D1BBF12D0F4C
:1015D0006FD0BBF12B0F08BF9EF800B06FF0004931
:1015E00008BF05F1020E73BBBBF1300F4BD00A27C9
:1015F0003B460025B9FBF7F6284607FB169A05E09F
:101600003AD007FB00C001251EF801BBABF1300C3E
:10161000BCF1090F06D9ABF1410CBCF1190F19D877
:10162000ABF1370C63451EDDB5F1FF3FECD08642D0
:10163000E6D24FF0FF35E7E700F0E0FA162303604B
:101640000020BDE8F88F102BD3D1BBF1300F23D091
:101650001F46CEE7ABF1610CBCF1190F03D8ABF11B
:10166000570C6345E0DC6B1C2BD054B9002AE8D042
:1016700085BB1160BDE8F88FE245C2DA4FF0FF3557
:10168000C2E74042F2E79EF8003003F0DF03582B38
:1016900008D008273B46ACE79EF8000000F0DF00CA
:1016A0005828D5D110279EF801B03B460EF1020E06
:1016B0009FE79EF800B04FF0004905F1020E0124AB
:1016C00091E72223C8F8003032B10EF1FF314846CD
:1016D0001160CFE78146F8E74846B2E701500008BD
:1016E00062E700BF10B4044C8446134620685DF8DE
:1016F000044B0A46614657E70000002010B4044C32
:101700008446134620685DF8044B0A4661464BE761
:10171000000000202DE9F8430746884616464FF0A2
:101720000009D6E90154013D10D4A389012B08D941
:10173000B4F90E3001332146384602D0C04749EA99
:101740000009013D6B1C04F16804EED13668002EDF
:10175000E7D14846BDE8F883000000000000000023
:1017600001F0FF01102A2BDB10F0070F08D010F852
:10177000013B013A8B422DD010F0070F42B3F6D156
:10178000F0B441EA012141EA014122F007047FF06F
:1017900000070023F0E80256083C85EA010586EAC6
:1017A000010685FA47F5A3FA87F586FA47F6A5FA02
:1017B00087F68EB9EED1F0BC01F0FF0102F007020E
:1017C00032B110F8013B013A83EA010313B1F8D1B9
:1017D0000020704701387047002D06BF354603389A
:1017E000073815F0010F07D1013015F4807F02BFD3
:1017F000013015F4C03F0130F0BC0138704700BF24
:1018000038B50C46084D8446114620461A4600233A
:101810002B60644600F0DCFA431C00D038BD2B6816
:10182000002BFBD0236038BDC801002070B50C78B8
:101830005E2C864624D00023481C9C46002263F37D
:10184000070263F30F2263F3174263F31F620EF57F
:101850008071734643F8042B8B42FBD174B18CF03A
:1018600001010EF80410451C15F8013C2D2B0ED07B
:101870005D2B0AD01BB11C462846F2E7013870BD2B
:1018800001234C78881C9C46D8E7284670BD90F808
:1018900001C0BCF15D0FEED06445ECDC661C02308B
:1018A0000EEB060202F8011BA2EB0E03013B9C4566
:1018B000F8DCACEB0403013B6445A8BF0023023510
:1018C000F418D1E7704700BF704700BF38B50C4629
:1018D000084D8446114620461A4600232B60644674
:1018E00000F06EFA431C00D038BD2B68002BFBD0F3
:1018F000236038BDC801002001F144032DE9F04107
:101900000C46496B994214D0A66B77003A4600F01A
:1019100015FA054630B300EB06080146324640464C
:1019200000F072F9C4E90D57C4F800800020BDE84A
:10193000F0814FF48061FFF759FD98B194F846307B
:101940004FF48062C4E90D0280F8FF3394F845300B
:1019500080F8FE3394F8442080F8FD2300F2FD3334
:101960002360E3E74FF0FF30E1E700BF70B54C1CA8
:101970002BD00E460546144610B1036A002B4CD0FE
:10198000B4F90C3023F020025807A28106D4D906FE
:101990001BD51B0734D442F00402A281626B63683A
:1019A000F6B2AAB1A26B9A4209DD23685A1E2260E0
:1019B00003F8016C636801336360304670BD2146F3
:1019C0002846FFF799FF0028EFD04FF0FF36F4E7E5
:1019D000226921682AB18A4203D211F8012CB2424D
:1019E0001ED02246C4E90F1304F1440003236063B0
:1019F000A36302F8466F0123C4E90023304670BD9B
:101A000021462846FFF78CFC0028DED1B4F90C20D3
:101A1000A06022F00802A061BDE7FFF7B5FBAFE7C9
:101A200001390133C4E90013C7E700BF10B4044C07
:101A300003460A4620685DF8044B1946FFF796BF37
:101A40000000002038B50C46084D8446114620465B
:101A50001A4600232B60644600F0D0F9431C00D0E6
:101A600038BD2B68002BFBD0236038BDC801002097
:101A700038B5074D0022044608462A6000F0B0F948
:101A8000431C00D038BD2B68002BFBD0236038BD31
:101A9000C80100202DE9F047074649480E46354663
:101AA00016F801EB10F80EC01CF0080CF7D1BEF1CF
:101AB0002D0F5AD0BEF12B0F03BF96F800E06446FD
:101AC000AE1C64464BB9BEF1300F5CD00A23DFF880
:101AD000F4804FF0050A99460AE0102B4AD04FF0E7
:101AE000FF38B8FBF3F803FB08FA6FEA0A0A9946D5
:101AF0000025284605E02CD009FB00C0012516F87A
:101B000001EBAEF1300CBCF1090F06D9AEF1410C7E
:101B1000BCF1190F0BD8AEF1370C634510DDB5F1F0
:101B2000FF3FECD04045E6D94FF0FF35E7E7AEF197
:101B3000610CBCF1190F03D8AEF1570C6345EEDC14
:101B40006B1C0BD004B140420AB165B91160BDE80D
:101B5000F087D445D0DD4FF0FF35D0E722233B603E
:101B60002846002AF3D0711EF0E796F800E0012421
:101B7000AE1CA7E7BEF1300F11D04FF00F0A6FF087
:101B800070489946B4E7337803F0DF03582B0BD045
:101B900008234FF0070A6FF060489946A8E73078AD
:101BA00000F0DF005828E8D14FF0100996F801E066
:101BB0004FF00F0A02366FF070484B4698E700BFAF
:101BC000015000089999991964E700BF10B4044CBA
:101BD0008446134620685DF8044B0A46614659E77F
:101BE0000000002010B4044C8446134620685DF8C1
:101BF000044B0A4661464DE700000020014B18687F
:101C0000704700BF00000020844641EA000313F043
:101C100003036DD1403A41D351F8043B40F8043BF3
:101C200051F8043B40F8043B51F8043B40F8043BB6
:101C300051F8043B40F8043B51F8043B40F8043BA6
:101C400051F8043B40F8043B51F8043B40F8043B96
:101C500051F8043B40F8043B51F8043B40F8043B86
:101C600051F8043B40F8043B51F8043B40F8043B76
:101C700051F8043B40F8043B51F8043B40F8043B66
:101C800051F8043B40F8043B51F8043B40F8043B56
:101C900051F8043B40F8043B403ABDD2303211D3F6
:101CA00051F8043B40F8043B51F8043B40F8043B36
:101CB00051F8043B40F8043B51F8043B40F8043B26
:101CC000103AEDD20C3205D351F8043B40F8043BF6
:101CD000043AF9D2043208D0D2071CBF11F8013BF4
:101CE00000F8013B01D30B8803806046704700BFBA
:101CF000082A13D38B078DD010F003038AD0C3F1C9
:101D00000403D21ADB071CBF11F8013B00F8013BAA
:101D100080D331F8023B20F8023B7BE7043AD9D369
:101D2000013A11F8013B00F8013BF9D20B7803703E
:101D30004B7843708B788370604670472DE9F04193
:101D4000144641B30AB306460D4600F029F8844212
:101D5000074602D8B4EB500F13D821463046FFF7A0
:101D600045FB804650B1BC422246294628BF3A4630
:101D7000FFF74AFF29463046FFF7B8FB4046BDE86B
:101D8000F081A8464046BDE8F081A046FFF7AEFBD3
:101D90004046BDE8F081BDE8F0411146FFF726BBA3
:101DA00051F8043C181F002BBCBF0B58C0187047DB
:101DB000024B58221A604FF0FF307047C8010020D4
:101DC000024B58221A604FF0FF307047C8010020C4
:101DD000024B58221A604FF0FF307047C8010020B4
:101DE000044A05491368002B08BF0B4618441060CD
:101DF00018467047CC010020A0040020024B582256
:101E00001A604FF0FF307047C801002053B94AB93B
:101E1000002908BF00281CBF4FF0FF314FF0FF30F2
:101E200000F06AB9ADF1080C6DE904CE00F006F8D7
:101E3000DDF804E0DDE9022304B070472DE9F04746
:101E4000089D0E4604460F46002B4AD194468C4509
:101E5000B2FA82F260D942B1C2F12003974020FA6F
:101E600003F30CFA02FC1F4394404FEA1C4E1FFA86
:101E70008CF6B7FBFEF1230C0EFB117743EA074308
:101E800001FB06F098420AD91CEB030301F1FF376E
:101E900080F01581984240F21281023963441B1A86
:101EA000A4B2B3FBFEF00EFB103344EA034400FB84
:101EB00006F6A6420AD91CEB040400F1FF3380F0B9
:101EC0000081A64240F2FD806444023840EA0140AD
:101ED000A41B00211DB1D4400023C5E90043BDE887
:101EE000F0878B4205D90DB1C5E9000100210846F4
:101EF000F5E7B3FA83F1002946D1B34202D3824217
:101F000000F2F580841A66EB030201201746002DCB
:101F1000E5D0C5E90047E2E7002A40F09380A1EB55
:101F20000C034FEA1C471FFA8CFE0121B3FBF7F6A6
:101F300007FB1630230C43EA00430EFB06F09842E1
:101F400008D91CEB030306F1FF3802D2984200F2D5
:101F5000D08046461B1AA4B2B3FBF7F007FB103340
:101F600044EA03440EFB00FEA64508D91CEB04041A
:101F700000F1FF3302D2A64500F2B6801846A4EB6A
:101F80000E0440EA0640A5E7C1F120078B4022FA83
:101F900007FC4CEA030C06FA01FE20FA07F426FAC5
:101FA00007F344EA0E0400FA01F84FEA1C404FEA36
:101FB0001449B3FBF0FE1FFA8CF600FB1E3349EA0E
:101FC00003430EFB06F9994502FA01F20BD91CEB0B
:101FD00003030EF1FF3A80F08580994540F282803C
:101FE000AEF1020E6344A3EB0909A4B2B9FBF0F30E
:101FF00000FB139944EA094403FB06F6A64208D9FC
:102000001CEB040403F1FF3068D2A64266D9023B00
:10201000644443EA0E40A41BA0FB02E6B4427346AC
:10202000B14652D34FD05DB1B8EB030264EB090463
:1020300004FA07F722FA01F31F43CC40C5E9007404
:1020400000214CE7C2F1200120FA01F30CFA02FC56
:1020500026FA01F1964033434FEA1C471FFA8CFEE3
:10206000B1FBF7F007FB1016190C41EA064100FB23
:102070000EF68E4204FA02F408D91CEB010100F1BD
:10208000FF382DD28E422BD902386144891B9BB276
:10209000B1FBF7F607FB161143EA014306FB0EF10D
:1020A000994208D91CEB030306F1FF3814D2994278
:1020B00012D9023E63445B1A46EA004136E73946CC
:1020C000EDE6184602E7F045ADD2BEEB020366EB43
:1020D0000C060138B146A6E74646ECE7034698E70A
:1020E0004046D3E7D6467EE76444023847E70846D1
:1020F0000DE7023E63442DE7704700BF2DE9F0472E
:102100008AB00024059406940794089409940094D6
:10211000434B1A6B42F010021A631A6B02F0100262
:102120000092009A01941A6B42F080021A631A6BB3
:1021300002F080020192019A02941A6B42F00102AD
:102140001A631A6B02F001020292029A03941A6B4C
:1021500042F008021A631A6B02F008020392039A13
:1021600004941A6B42F004021A631B6B03F004031D
:102170000493049BDFF8B0A022460221504602F0EF
:10218000F2F8284F22464FF40061384602F0EBF88F
:10219000DFF8989022468021484602F0E4F80122B8
:1021A0003F21384602F0DFF806260596069407948C
:1021B000DFF87C8005A9404601F0D8FF0223059393
:1021C000012506950794089405A9504601F0CEFF15
:1021D00040F63F03059306950794089405A93846F1
:1021E00001F0C4FF8023059306950794089405A980
:1021F000484601F0BBFF05954FF40413069307957D
:1022000005A9404601F0B2FF22462146304602F0C1
:1022100071F9304602F07EF90AB0BDE8F08700BFE0
:1022200000380240000C024000000240000802405A
:102230000010024030B583B0044608466D4601AB3D
:102240002A460549FEF728F895E8030084E80300CC
:10225000204603B030BD00BF0451000830B52DED5D
:10226000028B83B0344B834208D009223349324871
:1022700002F0E1FC03B0BDEC028B30BD2F4B1B7AAA
:10228000702B3AD02E492D48FEF73AF900283FD05E
:102290002C492A48FEF734F9002844D02A49274817
:1022A000FEF72EF90028E0D100223F21274802F056
:1022B0005AF80121264802F04FF80028D5D09FEDAA
:1022C000258AB0EE480A244802F00CFEB0EE480A17
:1022D000224802F007FEB0EE480A214802F002FE52
:1022E0000021204801F0C8FA00211F4801F0C4FA7B
:1022F00000211E4801F0C0FAB7E71D4D6C460F499A
:102300002046FFF797FF94E8030085E80300B9E74C
:1023100001223F210D4802F026F80023154A1370D0
:10232000154A1370B4E700223F21084802F01BF859
:10233000104B01221A70B1E7A4020020980200207D
:10234000105100081C51000828510008000C0240E0
:10235000001002400000FA43640200203002002016
:10236000FC0100200C0400207C030020EC02002073
:10237000F4010020F1010020F0010020704700006E
:10238000012800D07047354B1B78002BFAD12DE97E
:10239000F04188B032493348FEF7B2F800285AD1EC
:1023A0000121314801F0D8FF0028F9D1DFF8F08091
:1023B0000021404601F0E2FA2C4F0021384601F09E
:1023C000DDFA2B4E0021304601F0D8FA4FF4C973E4
:1023D000059340F27313049300240394254B029356
:1023E0000125019502230093234B224641462348B1
:1023F00002F03EFCF5230593CF2304930394204B76
:1024000002934FF0FF3301934FF4006300931D4B91
:10241000224639461C4802F02BFC462305931B2319
:1024200004930394194B0293019580230093184B56
:1024300022463146174802F01BFC174B06938DF8D5
:102440001C4006A8FDF79CFF82B206A9134802F0C3
:10245000E1F9024B1D7008B0BDE8F081F0010020E9
:102460002851000898020020001002407C03002040
:10247000EC0200205404002000000240640200200E
:10248000C4030020000C024030020020340300206E
:1024900000080240FC01002072656164A402002073
:1024A0000C04002038B504460268334B9A4214D01D
:1024B0002368B3F1804F26D02268304B9A4226D051
:1024C00022682F4B9A4238D022682E4B9A4238D03D
:1024D00022682D4B9A424AD038BD2C4D284602F036
:1024E00083FCAA6A2A4981FB0231D317C3EB21235B
:1024F0004FF4487101FB1323002BD9D12846AB625E
:1025000002F009FCD4E7214802F050FCD4E7214D49
:10251000284602F069FCAA6A1D4981FB0231D317E3
:10252000C3EB21234FF4487101FB1323002BC7D1C8
:102530002846AB6202F0EFFBC2E7164802F036FC19
:10254000C2E7154D284602F04FFCAA6A104981FBEC
:102550000231D317C3EB21234FF4487101FB13233E
:10256000002BB5D12846AB6202F0D5FBB0E70A4894
:1025700002F01CFCB0E700BF000001400004004076
:1025800000080040000C00400004014064020020EC
:102590001F85EB5130020020FC01002072B6FEE7DF
:1025A00010B596B0002412941394149415941094BA
:1025B000119409940A940B940C940D940E940F9416
:1025C0002022214601A8FDF747FF2B482B4B036033
:1025D000A723436084604FF4FA73C36004614461CD
:1025E000846100F0AFFF002839D14FF4805312937B
:1025F00012A9214801F0B1F8002832D11E4800F09C
:10260000CDFF00282FD100231093119310A91A4851
:1026100001F0FAF948BB602309934FF496730A93CB
:1026200000220B920C920D920E920F9209A9124861
:1026300001F018F8D8B9002301930293039304938F
:1026400005934FF400520692089301A90A4801F03D
:1026500021FA70B9084800F037FC16B010BDFFF73A
:102660009DFFFFF79BFFFFF799FFFFF797FFFFF72E
:1026700095FFFFF793FF00BF5404002000000140C6
:1026800000B58FB000230A930B930C930D9308931E
:10269000099301930293039304930593069307937D
:1026A0001F484FF0804202605322426083604FF423
:1026B000FA62C2600361836100F044FF30BB4FF4F3
:1026C00080530A930AA9164801F047F800BB144842
:1026D00000F064FFF0B900230893099308A910489B
:1026E00001F092F9C0B9602301934FF496730293FD
:1026F00000220392059201A9094800F0B3FF68B9CE
:10270000074800F0E1FB0FB05DF804FBFFF746FF60
:10271000FFF744FFFFF742FFFFF740FFFFF73EFFE1
:102720000C04002008B50A480A4B03604FF4E1335B
:10273000436000238360C36003610C2242618361B4
:10274000C36102F037F800B908BDFFF727FF00BFEB
:10275000A40200200010014000B58FB000230A93AE
:102760000B930C930D930893099301930293039396
:1027700004930593069307931F48204A026053224F
:10278000426083604FF4FA72C2600361836100F0BB
:10279000D9FE30BB4FF480530A930AA9164800F0C3
:1027A000DCFF00BB144800F0F9FEF0B900230893E9
:1027B000099308A9104801F027F9C0B960230193D3
:1027C0004FF49673029300220392059201A90A48DE
:1027D00000F048FF68B9084800F076FB0FB05DF8DC
:1027E00004FBFFF7DBFEFFF7D9FEFFF7D7FEFFF78D
:1027F000D5FEFFF7D3FE00BFC40300200004004055
:1028000000B58FB000230A930B930C930D9308939C
:1028100009930193029303930493059306930793FB
:102820001F48204A02605322426083604FF4FA62DC
:10283000C2600361836100F085FE30BB4FF48053BA
:102840000A930AA9164800F088FF00BB144800F05C
:10285000A5FEF0B900230893099308A9104801F0D8
:10286000D3F8C0B9602301934FF49673029300220A
:102870000392059201A90A4800F0F4FE68B90848DD
:1028800000F022FB0FB05DF804FBFFF787FEFFF7B7
:1028900085FEFFF783FEFFF781FEFFF77FFE00BF97
:1028A0007C0300200008004000B58FB000230A938D
:1028B0000B930C930D930893099301930293039345
:1028C00004930593069307931F48204A02605322FE
:1028D000426083604FF4FA72C2600361836100F06A
:1028E00031FE30BB4FF480530A930AA9164800F01A
:1028F00034FF00BB144800F051FEF0B900230893E8
:10290000099308A9104801F07FF8C0B9602301932A
:102910004FF49673029300220392059201A90A488C
:1029200000F0A0FE68B9084800F0CEFA0FB05DF8DC
:1029300004FBFFF733FEFFF731FEFFF72FFEFFF733
:102940002DFEFFF72BFE00BF34030020000C0040DB
:1029500010B596B000241294139414941594109406
:10296000119409940A940B940C940D940E940F9462
:102970002022214601A8FDF76FFD2B482B4B036059
:10298000A723436084604FF4FA63C3600461446129
:10299000846100F0D7FD002839D14FF480531293A1
:1029A00012A9214800F0D9FE002832D11E4800F0BB
:1029B000F5FD00282FD100231093119310A91A4878
:1029C00001F022F848BB602309934FF496730A93F1
:1029D00000220B920C920D920E920F9209A91248AE
:1029E00000F040FED8B900230193029303930493AF
:1029F00005934FF400520692089301A90A4801F08A
:102A000049F870B9084800F05FFA16B010BDFFF73A
:102A1000C5FDFFF7C3FDFFF7C1FDFFF7BFFDFFF7E2
:102A2000BDFDFFF7BBFD00BFEC020020000401402C
:102A300000B595B03022002108A8FDF70DFD002358
:102A4000039304930593069307930193204A116C13
:102A500041F080511164126C02F080520192019A8F
:102A600002931C4B1A6842F480421A601B6803F4FC
:102A700080430293029B012308934FF48033099310
:102A800002220E924FF480030F9304231093A82187
:102A900011911292139308A801F028F898B90F2306
:102AA000039302230493002305934FF4A05306934A
:102AB0004FF480530793052103A801F081FA20B950
:102AC00015B05DF804FBFFF769FDFFF767FD00BF78
:102AD000003802400070004030B587B001F058FD6A
:102AE000FFF7A6FFFFF70AFBFFF75AFDFFF7C8FD48
:102AF000FFF718FEFFF730FEFFF782FEFFF7D4FE68
:102B0000FFF726FF09225B495B4802F094F85B4817
:102B100002F070F94FF4C973059340F273130493F4
:102B200000240394564B0293012501950223009340
:102B3000544B22465449554802F09AF8F523059320
:102B4000CF2304930394524B02934FF0FF3301932E
:102B50004FF4006300934F4B22464F494F4802F019
:102B600087F8462305931B23049303944C4B02934D
:102B70000195802300934B4B22464B494B4802F072
:102B800077F84B4B1C605C6001F028FD04460BE0BD
:102B90000121204602F0A2F847E0204602F092F818
:102BA00043E001F01BFD0446424B1B78002BFBD099
:102BB00001F014FD001B1328F6D93C4B374A33496A
:102BC0003B4802F0C4F804460028EAD001463848E1
:102BD00002F0ADF80028E4D0354A92ED010AD0EDBC
:102BE000007AB8EEC00A30EE670A334D85ED000A70
:102BF000224802F021F9B0EEC00A204602F072F934
:102C0000D5ED007AB0EE007AF4EEC77AF1EE10FA64
:102C1000BEDCB8EE007AF4EEC77AF1EE10FABCD55D
:102C20004FF0FF31204602F059F8234BD3ED007AE4
:102C3000F0EEE77AB0EE007AF4EEC77AF1EE10FA31
:102C4000AFD8A26A1D4981FB0231D317C3EB212300
:102C50004FF4487101FB1323002BA2D1144B1B68C6
:102C6000E26A93429DDD226B93429ADA204602F09B
:102C700046F896E798020020A4020020D401002024
:102C800054040020000002400C04002064020020D4
:102C9000C4030020000C02407C030020300200200E
:102CA0003403002000080240EC020020FC01002058
:102CB000F4010020F1010020D00100201F85EB511C
:102CC000FEE7FEE7FEE7FEE7FEE770477047704766
:102CD00008B501F077FC08BD08B5012001F04AFBFA
:102CE00008BD000008B5024800F014FB08BD00BF95
:102CF0005404002008B5024800F00CFB08BD00BFDA
:102D00000C04002008B5024800F004FB08BD00BF19
:102D1000C403002008B5024800F0FCFA08BD00BF5B
:102D20007C03002008B5024801F01AFE08BD00BF70
:102D3000A402002008B5024800F0ECFA08BD00BF6C
:102D4000EC02002008B5024800F0E4FA08BD00BF1C
:102D50003403002082B0002100910B4B5A6C42F4E6
:102D600080425A645A6C02F480420092009A0191A7
:102D70001A6C42F080521A641B6C03F0805301936A
:102D8000019B02B0704700BF0038024000B587B019
:102D90000368474A934211D0B3F1804F22D0454A8D
:102DA000934234D0444A934245D0444A934256D049
:102DB000434A934267D007B05DF804FB00210091BD
:102DC000404B5A6C42F001025A645B6C03F0010301
:102DD0000093009B0A46192001F08CFB192001F09A
:102DE00099FBE8E70021019103F50E331A6C42F0DC
:102DF00001021A641B6C03F001030193019B0A4654
:102E00001C2001F077FB1C2001F084FBD3E700219C
:102E100002912C4B1A6C42F002021A641B6C03F0F4
:102E200002030293029B0A461D2001F063FB1D2052
:102E300001F070FBBFE700210391224B1A6C42F0B6
:102E400004021A641B6C03F004030393039B0A46F9
:102E50001E2001F04FFB1E2001F05CFBABE70021C0
:102E60000491184B1A6C42F008021A641B6C03F0B0
:102E700008030493049B0A46322001F03BFB3220F6
:102E800001F048FB97E7002105910E4B5A6C42F088
:102E900002025A645B6C03F002030593059B0A4629
:102EA0002C2001F027FB2C2001F034FB83E700BF2E
:102EB000000001400004004000080040000C0040F9
:102EC000000401400038024000B58DB00023079394
:102ED000089309930A930B9303684F4A934211D0C6
:102EE000B3F1804F26D04D4A93423AD04C4A934298
:102EF0004DD04C4A934261D04B4A934274D00DB0AE
:102F00005DF804FB00230193484B1A6B42F010025A
:102F10001A631B6B03F010030193019B4FF40073C2
:102F200007930223089301230B9307A9404801F05C
:102F30001DF9E4E7002302933C4B1A6B42F00102B7
:102F40001A631B6B03F001030293029B2023079378
:102F50000223089301230B9307A9364801F006F9D1
:102F6000CDE700230393314B1A6B42F001021A6341
:102F70001B6B03F001030393039B4023079302237E
:102F800008930B9307A92B4801F0F0F8B7E700234B
:102F90000493264B1A6B42F008021A631B6B03F072
:102FA00008030493049B4FF4805307930223089370
:102FB0000B9307A9204801F0D9F8A0E70023059357
:102FC0001A4B1A6B42F001021A631B6B03F00103E8
:102FD0000593059B01230793022308930B9307A9ED
:102FE000144801F0C3F88AE7002306930F4B1A6BCD
:102FF00042F004021A631B6B03F004030693069B62
:10300000402307930223089303230B9307A90B483C
:1030100001F0ACF873E700BF00000140000400407D
:1030200000080040000C004000040140003802404D
:103030000010024000000240000C02400008024064
:1030400010B588B000230393049305930693079368
:10305000026803F1804303F588339A4201D008B037
:1030600010BD0024019403F594335A6C42F0100211
:103070005A645A6C02F010020192019A02941A6B7F
:1030800042F001021A631B6B03F001030293029BDF
:103090004FF4C0630393022304930323069307238F
:1030A000079303A9054801F061F82246214625202F
:1030B00001F020FA252001F02DFAD0E700000240AF
:1030C00030B4036A026A22F0010202624268846933
:1030D00024F0730C0C6844EA0C0423F0020C8B6897
:1030E00043EA0C03114DA84203D005F58065A842C0
:1030F00005D123F00803CD682B4323F004030B4DC7
:10310000A84203D005F58065A84207D122F4407299
:103110004D6945EA020C8A6942EA0C024260846108
:103120004A684263036230BC704700BF0000014040
:1031300030B4036A026A22F4807202624268C4698F
:1031400024F0730C0C6844EA0C0523F400738C68BB
:1031500043EA0423114CA04203D004F58064A0424A
:1031600006D123F40063CC6843EA042323F480638C
:103170000A4CA04203D004F58064A04207D122F497
:1031800040524C6942EA04128C6942EA04124260DD
:10319000C5614A68C263036230BC704700000140E9
:1031A00030B4036A026A22F4805202624468C2693F
:1031B00022F4E6420D6842EA052223F400538D68AA
:1031C00043EA0533094DA84203D005F58065A842BE
:1031D00004D124F480444D6944EA85144460C261FA
:1031E0004A680264036230BC704700BF00000140BF
:1031F00010B4036A046A24F001040462846924F0B0
:10320000F00C4CEA021223F00A030B4382610362C2
:103210005DF8044B704710B4036A046A24F010048C
:103220000462846924F4704C4CEA023223F0A00357
:1032300043EA0113826103625DF8044B70478368BF
:1032400023F070030B4343F00703836070470000D3
:1032500090F83D30DBB2012B37D1022380F83D30AE
:103260000268D36843F00103D3600368194A9342AC
:1032700020D0B3F1804F1DD0A2F57C42934219D0EB
:1032800002F58062934215D002F58062934211D01C
:1032900002F5784293420DD002F57052934209D064
:1032A000A2F59432934205D01A6842F001021A60E6
:1032B000002070479A6802F00702062A07D01A68B1
:1032C00042F001021A600020704701207047002080
:1032D000704700BF000001400268D36823F001037B
:1032E000D3600368196A41F21112114208D1196AB8
:1032F00040F24442114203D11A6822F001021A60DE
:10330000012380F83D3000207047704770477047B8
:103310007047704770B504460368DE681D6915F094
:10332000020F10D016F0020F0DD06FF002021A61DA
:103330000123037703689B6913F0030F5ED0FFF747
:10334000E6FF0023237715F0040F12D016F0040FC8
:103350000FD023686FF004021A61022323772368D9
:103360009B6913F4407F4FD02046FFF7D0FF002326
:10337000237715F0080F12D016F0080F0FD023682E
:103380006FF008021A61042323772368DB6913F0C6
:10339000030F40D02046FFF7BAFF0023237715F034
:1033A000100F12D016F0100F0FD023686FF010021C
:1033B0001A61082323772368DB6913F4407F31D037
:1033C0002046FFF7A4FF0023237715F0010F02D05A
:1033D00016F0010F2DD115F0800F02D016F0800FDE
:1033E0002FD115F0400F02D016F0400F31D115F05B
:1033F000200F02D016F0200F33D170BDFFF786FFEB
:103400002046FFF785FF9CE72046FFF77FFF204619
:10341000FFF77EFFABE72046FFF778FF2046FFF778
:1034200077FFBAE72046FFF771FF2046FFF770FFEE
:10343000C9E723686FF001021A612046FFF732F8EE
:10344000C9E723686FF080021A61204600F04CFB48
:10345000C7E723686FF040021A612046FFF759FF63
:10346000C5E723686FF020021A61204600F03BFB9D
:10347000C3E700000368324A904212D0B0F1804F97
:103480000FD0A2F57C4290420BD002F580629042B0
:1034900007D002F58062904203D002F57842904254
:1034A00003D123F070034A681343254A90422AD07F
:1034B000B0F1804F27D0A2F57C42904223D002F594
:1034C000806290421FD002F5806290421BD002F5CC
:1034D0007842904217D002F57052904213D002F514
:1034E000806290420FD002F5806290420BD0A2F52C
:1034F0009832904207D002F58062904203D002F5E4
:103500008062904203D123F44073CA68134323F0CE
:1035100080034A6913438A68C2620A688262084A61
:10352000904203D002F58062904201D10A690263A1
:10353000026842F0040202600122426103607047A7
:103540000000014040B310B5044690F83D30F3B19F
:10355000022384F83D30214651F8040BFFF78AFF1F
:10356000012384F8463084F83E3084F83F3084F8F4
:10357000403084F8413084F8423084F8433084F895
:10358000443084F8453084F83D30002010BD80F888
:103590003C30FFF7FBFBDBE70120704740B310B581
:1035A000044690F83D30F3B1022384F83D302146C3
:1035B00051F8040BFFF75EFF012384F8463084F8CE
:1035C0003E3084F83F3084F8403084F8413084F84D
:1035D000423084F8433084F8443084F8453084F82D
:1035E0003D30002010BD80F83C30FFF78EFEDBE759
:1035F0000120704730B4036A026A22F010020262AE
:103600004468826922F4E6420D6842EA052223F00A
:1036100020038D6843EA0513114DA84203D005F538
:103620008065A84206D123F08003CD6843EA0513E4
:1036300023F040030A4DA84203D005F58065A84257
:1036400007D124F440644D6944EA85048D6944EA55
:103650008504446082614A688263036230BC7047BB
:103660000000014038B590F83C30012B66D004468C
:103670000D46012380F83C300C2A5AD8DFE802F0CE
:10368000075959591B59595930595959440000681B
:10369000FFF716FD2268936943F0080393612268DF
:1036A000936923F0040393612268936929690B43AA
:1036B000936100203EE00068FFF79CFF2268936959
:1036C00043F4006393612268936923F480639361F8
:1036D00022689369296943EA01239361002029E064
:1036E0000068FFF725FD2268D36943F00803D36122
:1036F0002268D36923F00403D3612268D36929695E
:103700000B43D361002015E00068FFF749FD2268F4
:10371000D36943F40063D3612268D36923F48063DF
:10372000D3612268D369296943EA0123D361002068
:1037300000E00120002384F83C3038BD0220FCE783
:1037400010B4846824F47F4C42EA03220A4342EA1C
:103750000C0282605DF8044B704790F83C30012BFE
:1037600078D010B50446012380F83C30022380F85D
:103770003D300268936823F47F4323F0770393601E
:103780000B68602B4CD023D8402B54D011D8202B61
:1037900003D00AD80BB1102B05D119462068FFF7CA
:1037A0004EFD002028E0012026E0302BF5D001203E
:1037B00022E0502B0AD1CA6849680068FFF718FD5B
:1037C00050212068FFF73BFD002015E0012013E0A9
:1037D000B3F5805F3AD0B3F5005F14D0702B37D1CA
:1037E000CB684A6889680068FFF7AAFF2268936877
:1037F00043F0770393600020012384F83D300023D9
:1038000084F83C3010BDCB684A6889680068FFF7CF
:1038100097FF2268936843F4804393600020EBE7AE
:10382000CA6849680068FFF7F6FC60212068FFF766
:1038300006FD0020E0E7CA6849680068FFF7D8FC89
:1038400040212068FFF7FBFC0020D5E70020D3E7EC
:103850000120D1E70220704701F01F014FF0010C59
:103860000CFA01FC036A23EA0C030362036A8A4030
:10387000134303627047000010B504460846002950
:1038800042D194F83E30DBB2013B18BF0123002B3C
:103890006ED1002851D1022384F83E300122014626
:1038A0002068FFF7D9FF2368334A934203D002F51B
:1038B0008062934203D15A6C42F400425A642368F6
:1038C0002D4A934249D0B3F1804F46D0A2F57C42B5
:1038D000934242D002F5806293423ED002F580626C
:1038E00093423AD002F57842934236D002F57052B4
:1038F000934232D0A2F5943293422ED01A6842F00D
:1039000001021A60002032E0042908D008290DD0F5
:1039100094F84130DBB2013B18BF0123B7E794F8BC
:103920003F30DBB2013B18BF0123B0E794F84030D1
:10393000DBB2013B18BF0123A9E7042805D0082802
:1039400007D0022384F84130A8E7022384F83F30EF
:10395000A4E7022384F84030A0E79A6802F0070247
:10396000062A07D01A6842F001021A60002010BD32
:103970000120FCE70020FAE70000014038B50446CA
:103980000D4600220068FFF767FF23681D4A934237
:1039900018D002F58062934214D02368196A41F26C
:1039A0001112114208D1196A40F24442114203D166
:1039B0001A6822F001021A609DB9012384F83E3092
:1039C000002038BD196A41F211121142E5D1196A7D
:1039D00040F244421142E0D15A6C22F400425A644F
:1039E000DBE7042D05D0082D07D0012384F84130F2
:1039F000E6E7012384F83F30E2E7012384F8403012
:103A0000DEE700BF0000014090F83C20012A3DD0D5
:103A100010B40346012280F83C20022280F83D20A9
:103A200002685068946820F0700C086840EA0C0046
:103A300050601A68164882421AD0B2F1804F17D0EF
:103A4000A0F57C40824213D000F5806082420FD006
:103A500000F5806082420BD000F57840824207D0AA
:103A600000F57050824203D0A0F59430824204D118
:103A700024F08004496821439160012283F83D20AD
:103A8000002083F83C005DF8044B7047022070472B
:103A900000000140024690F83C30012B21D0012368
:103AA00080F83C30CB6823F440738868034323F4E8
:103AB00080634868034323F400630868034323F4E6
:103AC00080530869034323F400534869034323F4F4
:103AD0008043C9690B4311684B64002082F83C00A5
:103AE000704702207047704770470000002800F0C0
:103AF000E08170B582B00446036813F0010F3BD03B
:103B00009F4B9B6803F00C03042B2CD09C4B9B68B1
:103B100003F00C03082B21D06368B3F5803F4FD02E
:103B2000B3F5A02F52D0964B1A6822F480321A6057
:103B30001A6822F480221A606368002B50D000F0CB
:103B40004DFD05468E4B1B6813F4003F14D100F069
:103B500045FD401B6428F5D90320B1E1884B5B6823
:103B600013F4800FD8D0864B1B6813F4003F03D0AA
:103B70006368002B00F09F81236813F0020F54D07C
:103B80007F4B9B6813F00C0F3ED07D4B9B6803F07E
:103B90000C03082B33D0E368002B68D0794B01224B
:103BA0001A6000F01BFD0546754B1B6813F0020FF1
:103BB00054D100F013FD401B0228F5D903207FE10A
:103BC0006F4A136843F480331360B5E76C4B1A688F
:103BD00042F480221A601A6842F480321A60ABE71D
:103BE00000F0FCFC0546664B1B6813F4003FC3D095
:103BF00000F0F4FC401B6428F5D9032060E1604B21
:103C00005B6813F4800FC6D15D4B1B6813F0020F85
:103C100003D0E368012B40F05081594A136823F028
:103C2000F803216943EAC1031360236813F0080F06
:103C300042D063696BB3534B0122C3F8802E00F06E
:103C4000CDFC05464E4B5B6F13F0020F34D100F0F4
:103C5000C5FC401B0228F5D9032031E1484A13680E
:103C600023F0F803216943EAC1031360DDE7454B04
:103C700000221A6000F0B2FC0546414B1B6813F0AD
:103C8000020FD2D000F0AAFC401B0228F5D9032075
:103C900016E13C4B0022C3F8802E00F09FFC054645
:103CA000374B5B6F13F0020F06D000F097FC401B00
:103CB0000228F5D9032003E1236813F0040F77D01D
:103CC0002F4B1B6C13F0805F33D1002301932C4BDF
:103CD0001A6C42F080521A641B6C03F080530193FB
:103CE000019B0125284B1B6813F4807F23D0A36818
:103CF000012B34D0052B38D0214B1A6F22F0010252
:103D00001A671A6F22F004021A67A368002B3DD0CD
:103D100000F064FC06461A4B1B6F13F0020F46D1ED
:103D200000F05CFC801B41F288339842F3D90320F9
:103D3000C6E00025D6E7144A136843F48073136085
:103D400000F04CFC0646104B1B6813F4807FCED16C
:103D500000F044FC801B0228F5D90320B0E0084A9B
:103D6000136F43F001031367CFE7054B1A6F42F05F
:103D700004021A671A6F42F001021A67C5E700BF12
:103D800000380240000047420070004000F026FC6E
:103D90000646524B1B6F13F0020F08D000F01EFCBA
:103DA000801B41F288339842F3D9032088E0EDB9B3
:103DB000A369002B00F08380484A926802F00C024D
:103DC000082A51D0022B17D0454B00221A6600F06A
:103DD00005FC0446414B1B6813F0007F42D000F005
:103DE000FDFB001B0228F5D9032069E03B4A136C58
:103DF00023F080531364DBE7394B00221A6600F08E
:103E0000EDFB0546354B1B6813F0007F06D000F034
:103E1000E5FB401B0228F5D9032051E0E369226A43
:103E20001343626A43EA8213A26A5208013A43EAE0
:103E30000243E26A43EA0263284A5360284B0122A4
:103E40001A6600F0CBFB0446244B1B6813F0007F7E
:103E500006D100F0C3FB001B0228F5D903202FE098
:103E600000202DE000202BE0012B2BD01B4B5B68AA
:103E700003F48001E269914226D103F03F02216AF6
:103E80008A4223D1616A47F6C0721A40B2EB811FA1
:103E90001ED103F44031A26A5208013AB1EB024F3D
:103EA00018D103F07063E26AB3EB026F14D1002003
:103EB00006E001207047012002E0012000E0002020
:103EC00002B070BD0120FBE70120F9E70120F7E710
:103ED0000120F5E70120F3E70120F1E70038024077
:103EE0000000474208B5334B9B6803F00C03042BDA
:103EF0005BD0082B5BD12F4B5A6802F03F025B6806
:103F000013F4800F2CD02B4B5868C0F388104FEA65
:103F1000401CBCEB000C6EEB0E0E4FEA8E1343EA16
:103F20009C634FEA8C11B1EB0C0163EB0E03DB00D9
:103F300043EA5173C90011EB000C43F1000359022D
:103F400000234FEA4C2041EADC51FDF75FFF194B9B
:103F50005B68C3F3014301335B00B0FBF3F008BDC2
:103F6000144B5868C0F388104FEA401CBCEB000C9F
:103F70006EEB0E0E4FEA8E1343EA9C634FEA8C11F0
:103F8000B1EB0C0163EB0E03DB0043EA5173C90094
:103F900011EB000C43F10003990200234FEA8C203F
:103FA00041EA9C51FDF732FFD1E70348D7E70348C8
:103FB000D5E700BF0038024000127A000024F40068
:103FC000002800F09B8070B50D4604464F4B1B68DF
:103FD00003F007038B4208D2CBB24C4A137013682C
:103FE00003F007038B4240F08B80236813F0020F2D
:103FF00017D013F0040F04D0454A936843F4E053FC
:104000009360236813F0080F04D0414A936843F487
:10401000604393603E4A936823F0F003A1680B432A
:104020009360236813F0010F32D06368012B21D015
:104030009A1E012A25D9364A126812F0020F61D061
:1040400033498A6822F0030213438B6000F0C6FAFA
:1040500006462F4B9B6803F00C036268B3EB820F9C
:1040600016D000F0BBFA801B41F288339842F0D999
:10407000032042E0264A126812F4003FE0D10120FA
:104080003BE0234A126812F0007FD9D1012034E0CE
:104090001E4B1B6803F00703AB4207D9EAB21B4B68
:1040A0001A701B6803F00703AB422DD1236813F08D
:1040B000040F06D0164A936823F4E053E1680B43DB
:1040C0009360236813F0080F07D0114A936823F414
:1040D0006043216943EAC1039360FFF703FF0C4B80
:1040E0009B68C3F303130B4AD35CD8400A4B186098
:1040F0000A4B186800F026FA002070BD01207047B6
:104100000120FAE70120F8E70120F6E7003C024031
:104110000038024060510008640000206000002068
:10412000014B1868704700BF6400002008B5FFF716
:10413000F7FF044B9B68C3F38223034AD35CD84048
:1041400008BD00BF003802405851000808B5FFF70D
:10415000E7FF044B9B68C3F34233034AD35CD84068
:1041600008BD00BF003802405851000800230F2B43
:1041700000F2E98070B582B065E085684FEA430ED1
:10418000032404FA0EF425EA0405CC6804FA0EF4BC
:104190002C438460446824EA02044A68C2F3001293
:1041A0009A40224342605CE0DC08083450F8242046
:1041B00003F00705AD004FF00F0E0EFA05FE22EAE0
:1041C0000E0E0A69AA4042EA0E0240F824205CE082
:1041D000072200E0002202FA0EF22A4302345A4D6E
:1041E00045F82420594A94686FEA0C0224EA0C0529
:1041F0004E6816F4801F01D04CEA0405534CA560AC
:10420000E46802EA04054E6816F4001F01D04CEA87
:1042100004054E4CE560646802EA04054E6816F435
:10422000003F01D04CEA0405484C656024682240F8
:104230004D6815F4803F01D04CEA0402434C2260E3
:1042400001330F2B7DD801229A400C6804EA020C3E
:1042500032EA0404F4D14C6804F00304013C012C5C
:104260008BD94A6802F00302032A09D0C4685D00B2
:104270000322AA4024EA02048A68AA402243C260B8
:104280004A6802F00302022A8ED004684FEA430E05
:10429000032202FA0EF224EA02044A6802F0030240
:1042A00002FA0EF2224302604A6812F4403FC7D07D
:1042B00000220192264A546C44F480445464526CA7
:1042C00002F480420192019A9C08A51C1E4A52F8F1
:1042D000255003F0030E4FEA8E0E0F2202FA0EF263
:1042E00025EA02051B4A90423FF474AF02F5806252
:1042F00090421AD002F58062904218D002F5806296
:10430000904216D002F58062904214D002F580628D
:10431000904212D002F58062904210D002F5806285
:1043200090423FF455AF082255E7012253E702229D
:1043300051E703224FE704224DE705224BE706220F
:1043400049E702B070BD704700380140003C0140B1
:1043500000380240000002400369194201D00120E8
:104360007047002070470AB181617047090481617C
:104370007047000008B5054B5B69034200D108BDDA
:10438000024B5861FDF7FCFFF9E700BF003C01401C
:1043900070B50446866D00F021F994F83530DBB233
:1043A000022B06D080236365002384F8343001207B
:1043B00070BD05462268136823F016031360226857
:1043C000536923F080035361236CE3B122681368BF
:1043D00023F0080313602268136823F001031360BD
:1043E00023681B6813F0010F11D000F0F7F8431B8E
:1043F000052BF5D920236365032084F835000023BD
:1044000084F83430D4E7A36C002BDFD1E3E7E26D0E
:104410003F239340B360012384F83530002084F8B3
:104420003400C5E790F83530DBB2022B03D080238F
:10443000436501207047052380F835300268136812
:1044400023F001031360002070470000002807DB01
:1044500000F01F02400901239340024A42F8203035
:10446000704700BF00E100E0002808DB0901C9B285
:1044700000F1604000F5614080F80013704700F0E3
:104480000F000901C9B2014B1954704714ED00E047
:1044900000B500F00700C0F1070CBCF1040F28BF05
:1044A0004FF0040C031D062B0FD9C31E4FF0FF3E27
:1044B0000EFA0CF021EA000199400EFA03FE22EAFE
:1044C0000E0241EA02005DF804FB0023EEE7000063
:1044D000074AD36823F4E0631B041B0C000200F4BA
:1044E000E060034343F0BF6343F40033D36070479D
:1044F00000ED00E010B50446054BD868C0F302207B
:10450000FFF7C6FF01462046FFF7AEFF10BD00BF14
:1045100000ED00E008B5FFF799FF08BD0138B0F1E4
:10452000807F0BD24FF0E0235861054AF02182F8DA
:1045300023100020986107221A61704701207047FC
:1045400000ED00E010B504460E4B1A784FF47A7374
:10455000B3FBF2F30C4A1068B0FBF3F0FFF7DEFF99
:1045600068B90F2C01D901200AE0002221464FF042
:10457000FF30FFF7BFFF054B1C60002000E001206B
:1045800010BD00BF5C00002064000020600000201F
:1045900008B50B4B1A6842F400721A601A6842F4AC
:1045A00080621A601A6842F480721A600320FFF772
:1045B0008FFF0F20FFF7C6FFFEF7CCFB002008BDE2
:1045C000003C0240034A1168034B1B780B44136004
:1045D000704700BF9C0400205C000020014B18685D
:1045E000704700BF9C040020026802F10C0353E8EE
:1045F000003F23F490730C3242E800310029F3D1DC
:10460000026802F1140353E8003F23F0010314325F
:1046100042E800310029F3D1036B012B05D02023A0
:1046200080F84230002303637047026802F10C03F4
:1046300053E8003F23F010030C3242E80031002918
:10464000F3D1ECE790F84130DBB2212B01D002200E
:1046500070478368B3F5805F17D0036A5A1C026203
:104660001A7803685A60C38C9BB2013B9BB2C38427
:104670004BB90268D36823F08003D3600268D36823
:1046800043F04003D360002070470369002BE4D15E
:10469000036A1B880268C3F308035360036A02338A
:1046A0000362E0E710B504460268136923F440533F
:1046B000C1680B431361836802691A4343691A4353
:1046C000C3691A430168CB6823F4164323F00C0333
:1046D0001343CB600268536923F4407381690B4331
:1046E00053610368314A934206D002F580629342D7
:1046F00002D0FFF71BFD01E0FFF728FDE369B3F5EA
:10470000004F29D00021031849411B1841F1000135
:10471000C90041EA5371DB00181863684FEA83024D
:104720004FEA937341F10001FDF770FB204AA2FBB1
:1047300000314909642303FB11031B013233A2FB3F
:1047400003235B0903F0F00202EB011203F00F03F5
:10475000216813448B6010BD0023021843EB030152
:10476000121841F10001C90041EA5271D20010183B
:1047700041F10001626892185B41FDF747FB0C4A6A
:10478000A2FB00314909642303FB1103DB00323330
:10479000A2FB03235B095A0002F4F87202EB011238
:1047A00003F00703216813448B60D4E70010014035
:1047B0001F85EB5160B310B5044690F8413013B338
:1047C000242384F841302268D36823F40053D36053
:1047D0002046FFF767FF2268136923F490431361B3
:1047E0002268536923F02A0353612268D36843F493
:1047F0000053D36000206064202384F8413084F8A3
:104800004230606310BD80F84030FEF719FCD7E7F6
:104810000120704790F84130DBB2202B10D189B1D4
:1048200092B101628284C28400234364212280F811
:1048300041200168CA6842F08002CA601846704789
:1048400002207047012070470120704708B50168B9
:10485000CA6822F04002CA60202280F84120FDF799
:104860008DFD002008BD704708B5806B0023C3850F
:10487000FFF7F9FF08BD704790F84230DBB2222BFA
:1048800069D18368B3F5805F4FD0826AB3F5805FEA
:1048900004D0002B56D10369002B53D103685B6809
:1048A0001370836A01338362C38D9BB2013B9BB259
:1048B000C385002B51D100B583B00268D36823F0C3
:1048C0002003D3600268D36823F48073D360026846
:1048D000536923F001035361202380F84230002301
:1048E0004363036B012B33D100230363026802F19E
:1048F0000C0353E8003F23F010030C3242E8003170
:104900000029F3D103681A6812F0100F06D00022B4
:1049100001921A6801925B680193019B818DFFF7F8
:10492000AAFF002003B05DF804FB0269002AACD1A5
:10493000826A03685B68C3F308031380836A0233E7
:104940008362B1E703685B6803F07F031370A8E735
:10495000FDF784FCE5E70220704700207047000067
:1049600010B582B0044602681368D068516913F02C
:104970000F0F09D113F0200F0CD010F0200F09D029
:104980002046FFF779FF16E011F0010115D110F470
:10499000907F12D1216B012979D013F0800F03D0C1
:1049A00010F0800F40F0218113F0400F03D010F081
:1049B000400F40F01E8102B010BD13F0010F06D071
:1049C00010F4807F03D0626C42F00102626413F045
:1049D000040F04D019B1626C42F00202626413F059
:1049E000020F04D019B1626C42F00402626413F049
:1049F000080F07D010F0200F00D119B1626C42F0FF
:104A000008026264626C002AD5D013F0200F02D035
:104A100010F0200F29D123685B6903F04003626C1A
:104A200012F0080F00D163B32046FFF7DDFD2368C5
:104A30005B6913F0400F20D0226802F1140353E8A1
:104A4000003F23F04003143242E800310029F3D143
:104A5000E36B73B1694A1A65E06BFFF7E3FC00286A
:104A6000A9D0E06B036D9847A5E72046FFF704FF48
:104A7000D1E72046FFF7F7FE9DE72046FFF7F3FE5C
:104A800099E72046FFF7EFFE0023636493E713F0F6
:104A9000100F82D010F0100F3FF47FAF002301936E
:104AA0001368019353680193019B536913F0400FFE
:104AB0005FD0E26B13685B689BB2002B4AD0A18D7C
:104AC000994247D9E385D369B3F5807F37D022680F
:104AD00002F10C0353E8003F23F480730C3242E8E8
:104AE00000310029F3D1226802F1140353E8003F9A
:104AF00023F00103143242E800310029F3D1226887
:104B000002F1140353E8003F23F04003143242E85B
:104B100000310029F3D1202384F84230002323639D
:104B2000226802F10C0353E8003F23F010030C321B
:104B300042E800310029F3D1E06BFFF729FC0223A2
:104B40006363A18DE38D9BB2C91A89B22046FFF73A
:104B500092FE30E7A18D99427FF42DAFD369B3F572
:104B6000807F7FF428AF022363632046FFF783FE34
:104B700021E7A18DE38D9BB2C91A89B2E38D9BB267
:104B8000002B3FF418AF00293FF415AF226802F163
:104B90000C0353E8003F23F490730C3242E80030DA
:104BA0000028F3D1226802F1140353E8003F23F0F8
:104BB0000103143242E800300028F3D1202384F8A6
:104BC000423000232363226802F10C0353E8003FC4
:104BD00023F010030C3242E800300028F3D1022306
:104BE00063632046FFF747FEE5E62046FFF72AFD10
:104BF000E1E62046FFF72AFEDDE600BF694800082F
:104C000081628285C28500234364222380F842307A
:104C1000036923B10268D36843F48073D3600268E8
:104C2000536943F0010353610268D36843F02003E2
:104C3000D3600020704708B590F84230DBB2202BDB
:104C400008D149B10AB9012008BD00230363FFF769
:104C5000D7FFF9E70220F7E70120F5E7034AD2F88A
:104C6000883043F47003C2F88830704700ED00E0EC
:104C7000016042608360BDF800308381019B036165
:104C8000029B4361039B83610023C361054B036265
:104C9000054B436200238362049BC362059B03634D
:104CA000704700BF0000C8420000484348B110B53B
:104CB00004460068FEF7CCFA61682068FEF7DCFD68
:104CC00010BD704748B110B504460068FEF704FBFC
:104CD00061682068FEF752FE10BD704770B138B5AC
:104CE0000C460546FFF7E2FF2C61012C14BF0022A1
:104CF0000122A989A868FFF736FB38BD704748B183
:104D000010B504464069FEF7A3FAA1696069FEF791
:104D1000B3FD10BD704748B110B504464069FEF7B9
:104D2000DBFAA1696069FEF729FE10BD704768B122
:104D30004368C82B04DC642B05DD01F120007047BB
:104D400001F12400704701F11C007047704770B5F5
:104D50000E4615461C460368B3F5BA7F0BDACF2B17
:104D600011DC002B17DD0846FFF7ACFF2846FFF7E4
:104D7000A9FF204670BD1046FFF7A4FF2046FFF7AD
:104D8000A1FF3046F6E70846FFF79CFF2046FFF7F5
:104D900099FF2846EEE70846FFF794FF2846FFF7FD
:104DA00091FF2046FFF78EFF0020E3E7C8B190EDAA
:104DB000077AD0ED047AF8EEE77ADFED0A6A67EE5B
:104DC000A67A37EE277A80ED077A90ED087A37EEEB
:104DD000877A80ED087A90ED097A77EE877AC0EDD0
:104DE000097A70471951F93D10B1836A0133836222
:104DF00070470000B8B110B504464FF07E534360D1
:104E0000094B0360094B0361094B4361094B836103
:104E100000238360FFF7E2FB07EE900AF8EE677A63
:104E2000C4ED037A10BD70470000A0420AD7A33C2E
:104E30000000FA440000C84310B52DED028B044673
:104E4000B0EE408AFFF7CAFB07EE100AB8EE477AC9
:104E5000D4ED036A77EE666A9FED1F6AC6EE867A26
:104E600084ED037AF5EEC07AF1EE10FA31D994EDC3
:104E7000027A67EE887A37EE277A84ED027AD4EDEB
:104E8000007A67EE887AD4ED016A27EE267A77EE0B
:104E9000877A94ED050AB4EEE70AF1EE10FA01D52F
:104EA000F0EE407AB1EE400AB4EEE70AF1EE10FA05
:104EB00001DCB0EE670AF0EEC07A94ED067AF4EE0B
:104EC000C77AF1EE10FA01D59FED040ABDEC028B12
:104ED00010BDDFED037ACAE700007A44000000004D
:104EE0006F12833A0246F8B1B0EEC07AB5EE400ACE
:104EF000F1EE10FA19D0DFED236AC6EE877AFCEEE8
:104F0000E77A17EE903A01680968C1ED0B7A0168FB
:104F1000C1ED037A416811BB016809685B084B6306
:104F200013681B6800225A627047436823B90368FC
:104F30001B6800225A637047042B06D0082B09D047
:104F400003681B6800221A64704703681B6800220C
:104F50009A63704703681B680022DA63704704296C
:104F600006D0082909D0016809685B080B64D7E7F7
:104F7000016809685B088B63D2E7016809685B0810
:104F8000CB63CDE700247449DFF834D0FFF766FE29
:104F90000C480D490D4A002302E0D458C450043394
:104FA000C4188C42F9D30A4A0A4C002301E013606A
:104FB0000432A242FBD3FBF747F9FDF78DFD7047A2
:104FC000000002200000002068000020805100083E
:104FD00068000020A0040020FEE70000F8B500BF34
:104FE000F8BC08BC9E467047F8B500BFF8BC08BCCA
:044FF0009E46704722
:104FF4004C51000850510008545100080020202052
:105004002020202020202828282828202020202074
:105014002020202020202020202020202088101044
:1050240010101010101010101010101010040404A0
:10503400040404040404041010101010101041415E
:10504400414141410101010101010101010101014C
:105054000101010101010101101010101010424260
:10506400424242420202020202020202020202021C
:1050740002020202020202021010101020000000BC
:10508400000000000000000000000000000000001C
:10509400000000000000000000000000000000000C
:1050A40000000000000000000000000000000000FC
:1050B40000000000000000000000000000000000EC
:1050C40000000000000000000000000000000000DC
:1050D40000000000000000000000000000000000CC
:1050E40000000000000000000000000000000000BC
:1050F40000000000000000000000000000000000AC
:1051040073253033642C25303364700073746F70EE
:1051140073746F70730000007374617274746172DD
:1051240074000000696E69742C696E697400000073
:10513400686C4C00412D46612D663839303132336C
:10514400343536375D0000002B2D00003030000070
:105154007858000000000000010203040000000071
:0C51640000000000010203040607080917
:0851700010B2FF7F01000000F6
:045178002902000800
:04517C000102000824
:10518000040000200000000084000020EC0000204B
:10519000540100200000000000000000000000009A
:1051A00000000000000000000000000000000000FF
:1051B00000000000000000000000000000000000EF
:1051C00000000000000000000000000000000000DF
:1051D0000000000003000000840000200100000027
:0851E000100000000024F4009F
:0400000508004F8917
:00000001FF
