:020000040800F2
:1000000000000220A95F0008493D00084B3D0008A0
:100010004D3D00084F3D0008513D00080000000024
:10002000000000000000000000000000533D000838
:10003000553D000800000000573D0008593D0008EC
:10004000F95F0008F95F0008F95F0008F95F000830
:10005000F95F0008F95F0008613D0008F95F0008DA
:10006000F95F0008F95F0008F95F0008F95F000810
:10007000F95F0008F95F0008F95F0008F95F000800
:10008000F95F0008F95F0008F95F0008F95F0008F0
:10009000F95F0008F95F0008F95F0008F95F0008E0
:1000A0006D3D0008F95F0008F95F0008F95F00087E
:1000B0007D3D00088D3D00089D3D0008F95F00086A
:1000C000F95F0008F95F0008F95F0008F95F0008B0
:1000D000F95F0008AD3D0008F95F0008F95F00080E
:1000E000F95F0008F95F0008F95F0008BD3D0008EE
:1000F000F95F0008F95F0008F95F0008F95F000880
:10010000F95F0008F95F0008CD3D0008F95F0008BD
:10011000F95F0008F95F0008F95F0008F95F00085F
:10012000F95F0008F95F0008F95F0008F95F00084F
:10013000F95F0008F95F0008F95F0008F95F00083F
:10014000F95F0008F95F0008F95F0008F95F00082F
:10015000F95F0008F95F0008F95F0008F95F00081F
:10016000F95F0008F95F0008F95F0008F95F00080F
:10017000F95F0008F95F0008F95F0008000000005F
:08018000F95F0008F95F0008B7
:1001C0000348044B834202D0034B03B118477047E6
:1001D0006800002068000020000000000548064B71
:1001E0001B1AD90F01EBA301491002D0034B03B135
:1001F00018477047680000206800002000000000D9
:1002000010B5064C237843B9FFF7DAFF044B13B15E
:100210000448AFF300800123237010BD6800002064
:1002200000000000FC5F000808B5044B1BB1044946
:100230000448AFF30080BDE80840CFE700000000AD
:100240006C000020FC5F000870B50F4B0F4DAB42F7
:10025000A3EB050607D0B610002455F8043B013483
:100260009847A642F9D805F0C9FE094D094B5E1B17
:10027000AB424FEAA60606D0002455F8043B0134F1
:100280009847A642F9D870BD0462000804620008CD
:1002900004620008086200080EB470B59DB021AC7D
:1002A00000254FF4017254F8046BADF814201B952F
:1002B0000290069000F064F80B4B0B930B4B0390ED
:1002C0004FF6FF710790ADF8161018680F9532467B
:1002D000234602A91495019400F0A4FE1DB0BDE8C8
:1002E000704003B0704700BF010C00080000002000
:1002F0000CB4F0B59DB022AC00254FF40173064656
:10030000084654F8047BADF81430029106911B9511
:1003100000F036F80346039307930A4B0B934FF60E
:10032000FF73ADF816303A463046234602A90F95C2
:100330001495019400F076FE1DB0BDE8F04002B0C7
:10034000704700BF010C0008000000000000000022
:10035000000000000000000000000000000000009D
:10036000000000000000000000000000000000008D
:10037000000000000000000000000000000000007D
:1003800030B490F800F020F007016FF0000C10F08E
:10039000070491F820F040F048804FF000046FF01F
:1003A0000700D1E9002391F840F000F1080082FA3B
:1003B0004CF2A4FA8CF283FA4CF3A2FA8CF34BBB06
:1003C000D1E9022382FA4CF200F10800A4FA8CF27F
:1003D00083FA4CF3A2FA8CF3E3B9D1E9042382FA4D
:1003E0004CF200F10800A4FA8CF283FA4CF3A2FA62
:1003F0008CF37BB9D1E9062301F1200182FA4CF29A
:1004000000F10800A4FA8CF283FA4CF3A2FA8CF300
:10041000002BC6D0002A04BF04301A4612BAB2FA22
:1004200082F200EBD20030BC7047D1E9002304F027
:100430000305C4F100004FEAC50514F0040F91F85C
:1004400040F00CFA05F562EA05021CBF63EA0503F9
:1004500062464FF00004AAE7830730B547D0541E28
:10046000002A3ED0CAB2034601E0013C39D303F86A
:10047000012B9D07F9D1032C2CD9CDB205EB052515
:100480000F2C05EB054535D9A4F1100222F00F0C15
:1004900003F1100EE6444FEA121C1A46C2E9005559
:1004A000C2E9025510327245F8D10CF1010214F084
:1004B0000C0F03EB021204F00F0C13D0ACF1040389
:1004C00023F003030433134442F8045B9342FBD14B
:1004D0000CF003042CB1C9B21C4403F8011BA34265
:1004E000FBD130BD64461346002CF4D1F9E7034636
:1004F0001446C0E71A46A446E0E700BF000000002B
:1005000002780B78012A28BF9A4240F0D8806DE922
:10051000044540EA0104CDE902676FF0000C4FEAA0
:1005200044721AB380EA010414F0070F6BD100F093
:10053000070420F0070004F0030521F007014FEA4B
:10054000C505F0E8042314F0040FF1E804670CFA81
:1005500005F462EA040266EA04060BD063EA0403C7
:10056000624667EA0407664604E000BFF0E8042339
:10057000F1E8046782FA4CF582EA0604A4FA8CF4E6
:100580006CBB83FA4CF583EA0705A5FA8CF595B99F
:1005900050E9022351E9026782FA4CF582EA060427
:1005A000A4FA8CF483FA4CF583EA0705A5FA8CF5D6
:1005B0002543DBD09CB92DBAB5FA85F424F00704A5
:1005C00027FA04F1DDE9026723FA04F303F0FF00E0
:1005D00001F0FF01FDE80445A0EB0100704724BADB
:1005E000B4FA84F424F0070426FA04F1DDE9026782
:1005F00022FA04F202F0FF0001F0FF01FDE80445D9
:10060000A0EB0100704714F0030F3CD110F003047D
:1006100028D150F8082B51F8083B82FA4CF582EAB1
:100620000305A5FA8CF55DB950F8042C51F8043C8B
:1006300082FA4CF582EA0305A5FA8CF5002DE8D084
:100640002DBAB5FA85F424F0070423FA04F122FA4E
:1006500004F202F0FF0001F0FF01FDE80445A0EB09
:10066000010070474FEAC40420F0030050F8082B43
:1006700021F0030151F8083B0CFA04F462EA040289
:1006800063EA0403C9E710F003041DD0A1EB0401E1
:1006900020F00300E40750F8042B06D012D28B7828
:1006A0005FFAA2F4E41A06D12BB1CB785FFAB2F468
:1006B000E41A00D133B920465DF8104B7047A2EB25
:1006C0000300704701F1040150F8042BCC0721F01E
:1006D000030151F8043B48D824D222F07F4482FA27
:1006E0004CF594EA1325A5FA8CF50AD165B951F8B1
:1006F000043B84EA0204B4EB036F0ED150F8042BE0
:10070000EBE74FEA132355E035F07F454DD10878EC
:10071000FDE80445C0F1000070474FEA126203F0A3
:10072000FF0347E002EA1C4482FA4CF594EA1345C1
:10073000A5FA8CF50AD165B951F8043B84EA0204A4
:10074000B4EB034F0CD150F8042BEBE74FEA134303
:1007500030E015EA1C4528D10B884FEA124229E007
:100760004FEA124203EA1C4324E002F0FF0482FA3B
:100770004CF594EA1365A5FA8CF50AD165B951F8E0
:10078000043B84EA0204B4EB032F09D150F8042B94
:10079000EBE74FEA13630DE015F0FF0F05D10B688F
:1007A0004FEA122223F07F4304E04FF00000FDE8FF
:1007B0000445704712BA1BBA82FA4CF482EA030469
:1007C000A4FA8CF5B5FA85F402FA04F203FA04F3FC
:1007D0004FEA1260FDE80445A0EB1360704700BFCC
:1007E0000EB400B582B003AB816853F8042B0193BB
:1007F00000F060F802B05DF804EB03B0704700BF92
:100800000FB400B5074983B004AB086853F8042B54
:100810008168019300F04EF803B05DF804EB04B07A
:10082000704700BF000000209368013B002B9360DD
:1008300011DA10B49469A34209DB0A2907D01368BE
:10084000581C1060197008465DF8044B70475DF83D
:10085000044B00F073B91368581C106019700846F7
:10086000704700BF9BB1F8B5134406460F46541EAF
:100870005D1E01E0AC4208D014F8011F3A46304634
:10088000FFF7D2FF431CF5D1F8BD0020F8BD0020D2
:10089000704700BF936810B514461BB91846002373
:1008A000636010BD00F0E4F90023A36000236360DF
:1008B00010BD00BF2DE9F04FA1B08B4691461C46FC
:1008C000049018B1036A002B00F01C81BBF80C30B7
:1008D000180740F19580DBF81030002B00F0908075
:1008E0000023CA460D9343F22003ADF839309AF83D
:1008F0000030864E07940127002B79D0D14604E0C2
:1009000019F8013F002B00F08580252BF8D1B9EBB9
:100910000A0840F0828099F80030002B68D000234C
:100920004FF0FF32CDE9092309F1010908930B9338
:100930008DF863301E9305E0089A07FA03F31A4313
:100940000892A1464C46052214F8011B304601F0DE
:1009500007FBA246831B0028EED1089BD90644BFA3
:1009600020228DF8632099F800101A0744BF2B222B
:100970008DF863202A2966D1079A1168043200296C
:100980000792C0F29A800B9199F801102E2970D02D
:100990005F4C0322204601F0E3FA38B1089B001BAC
:1009A0004022824013430AF1010A08931AF8011BFE
:1009B00058488DF83810062201F0D2FA002800F0CD
:1009C0008280554B002B69D007AA0092534B0498A4
:1009D0005A4608A9AFF300800390039B013307D068
:1009E0000D9B039A13440D939AF80030002B85D188
:1009F000BBF80C305B060AD40D9821B0BDE8F08F2F
:100A00000498594601F0FCFA00283FF469AF4FF012
:100A1000FF30F2E7B9EB0A08EAD00AF1FF35CDF86A
:100A20001490A946049D01E0A0453ED94C465A4683
:100A300019F8011F2846FFF7F7FE02340130A4EB36
:100A40000A04F1D1D4E7A1F13002092A88BFCA46CD
:100A50009CD80B9B00E00134217803EB830302EB6D
:100A60004303A1F13002092AF5D92E290B93A2469E
:100A70008ED19AF801102A292FD1079B9AF80210DB
:100A80001A6809920433002A0AF102000793B8BFDA
:100A90004FF0FF338246B8BF099379E7079B0733CE
:100AA00023F00703083307939AE70D99DDF81490B4
:100AB000414499F800300D912FE7494243F0020379
:100AC0000B91089360E707AA0092144B04985A46CA
:100AD00008A901F06BFC03907FE7A1F1300200232D
:100AE000092A09930AF1010A3FF652AF1AF8011FC9
:100AF00003EB830302EB4303A1F13002092AF5D98A
:100B0000099345E700F0BEFEE0E600BF88610008FB
:100B1000906100089461000800000000650800086A
:100B200010B4054C8446134620685DF8044B0A4611
:100B30006146FFF7BFBE00BF00000020F8B50D46BC
:100B40001446064610B1036A002B37D0A389A26968
:100B5000A2601A0719D52369BBB122686169D31A4B
:100B6000EDB299422F4620DD0133A1680139A16021
:100B7000511C2160157062699A420DD0A389DB0770
:100B800001D50A2D08D03846F8BD2146304601F07F
:100B900037FA38B92369E0E72146304600F03EFFD6
:100BA0000028F0D04FF0FF37EDE72146304600F047
:100BB00035FF0028F6D122680123D6E700F062FE57
:100BC000C4E700BF10B4044C03460A4620685DF831
:100BD000044B1946FFF7B2BF0000002010B50C46C9
:100BE000B1F90E1001F008FB002803DB636D03442C
:100BF000636510BDA38923F48053A38110BD00BF9A
:100C0000002070472DE9F0410C46B1F90C101F4649
:100C1000CB05054616460BD421F48051A1813B46F5
:100C2000B4F90E1032462846BDE8F04101F096BEF8
:100C3000B4F90E100223002201F0D4FDB4F90C1017
:100C4000EAE700BF10B50C46B1F90E1001F0CAFD7D
:100C5000B4F90C30421C0EBF23F4805343F480538C
:100C60006065A38110BD00BFB1F90E1000F032BE67
:100C70009368002B00F0F8802DE9F04FB1F90CC01B
:100C80001CF0080F83B0904681460C4631D00B69AA
:100C90007BB31CF00207D8F8006038D00027D4F8E6
:100CA00028B0216ADFF8C4A23D4655452B463A4696
:100CB00028BF53464846C5B1D847002840F3CA80EC
:100CC000D8F808301B1A07442D1AC8F80830002B32
:100CD00000F0B68055452B46D4F828B0216A28BFCD
:100CE00053463A464846002DE6D1D6E90075083607
:100CF000DBE72146484601F083F9002840F0AF8049
:100D0000B4F90CC0D8F800601CF00207C6D11CF082
:100D1000010A63D12368A168574618468B46002F05
:100D200058D01CF4007F00F0B580B9420A4600F2AA
:100D3000E1801CF4906F2FD0216962695D1A02EB8B
:100D4000420202EBD2726B1C52103B44934292BFA0
:100D500093469B461A461CF4806F00F0EA801146C9
:100D6000484600F0C1FE002800F0F9802A462169BB
:100D7000009001F0A7F9A289009B22F4906242F052
:100D80008002A2815819ABEB0505C4F814B02361A9
:100D9000A5602060BB463A465146009200F082FFB3
:100DA000A1682368009AA1EB0B011A443D46A1609B
:100DB00022600027D8F808305B1BAA44C8F8083026
:100DC000002B3DD02368A168B4F90CC018468B46AF
:100DD000002FA6D1D6E900A708369EE73846BB46C5
:100DE0003D460097002D41D0002846D0009A20684B
:100DF000A168D4E90473AA4228BF2A46B84204D99C
:100E000001EB030A524500F38580934275DC216AA9
:100E1000A76A5A464846B847B0F1000A1ADD009B57
:100E2000B3EB0A0300930FD00120D8F80830A3EBEE
:100E30000A03D344A5EB0A05C8F80830002BD1D12A
:100E4000002003B0BDE8F08F2146484600F0E6FDE3
:100E50000028EAD0B4F90C3043F04003A3814FF0EE
:100E6000FF3003B0BDE8F08F00207047756833464F
:100E70000836002DFAD0D3F800B02A460A21584689
:100E800001F06EF8002867D00130A0EB0B0300934F
:100E90001A46ACE722699A4214D36269BA4211D861
:100EA0006FF00043BB4228BF3B46A56A93FBF2F3B9
:100EB000216A02FB03F348465246A847051EC9DDD6
:100EC0007F1B77E7B94228BF39460D4618460A46C8
:100ED000514600F0E7FEA1682368491B2B44A1603E
:100EE00023600029ECD12146484600F097FD0028F8
:100EF000E6D0AFE7BB463A464EE75946019200F0CE
:100F0000D1FE019AA3689B1AA3602368134423604F
:100F1000924684E75946524600F0C4FE2368534483
:100F200023602146484600F079FD00283FF477AF62
:100F300090E7484601F076F9034600287FF422AF97
:100F40002169484600F050FEB4F90C300C22C9F873
:100F5000002023F080037FE76A1C009247E70C2201
:100F6000B4F90C30C9F8002076E700BF00FCFF7F21
:100F700038B54B1C1AD09389144623F020035268CD
:100F8000A381636BCDB2A3B1A36B934209DD236848
:100F90005A1E226003F8015C6368013363602846CF
:100FA00038BD214601F034FC0028F0D04FF0FF3569
:100FB000F5E7236921682BB18B4203D211F8013C7C
:100FC000AB420ED02346C4E90F1204F144000322C1
:100FD0006063A26303F8465F0122C4E90032284639
:100FE00038BD01390132C4E90012D8E710B50C460A
:100FF000496B69B104F14403994201D000F0F4FD5A
:10100000236C63600020606313B1E36B236010BD49
:10101000A2892369002142F020026160A2814FF081
:10102000FF30F3E72DE9F047ADF5247D92F800900D
:1010300001930023CDE94533864BA1930DF10808B8
:10104000854BA293CDF81C81B9F1000F14D0834FCA
:1010500017F80930924613F0080306460C460AF1C9
:1010600001052ED1B9F1250F45D06368002B08DDAD
:1010700023681A784A450FD045980DF5247DBDE8C0
:10108000F087A29B214630469847002840F00B810C
:1010900023681A784A45EFD1013323606368013B26
:1010A0006360469B0133AA4646939AF80090B9F1D3
:1010B000000FE1D017F8093013F008030AF1010519
:1010C000D0D062680DE023681A78BA5C110703F18A
:1010D00001030ED562684699013AC4E90032013134
:1010E0004691002A21463046EDDCA29B9847002815
:1010F000E9D0AA46D9E7449342939AF801102A29E5
:1011000005D1102342939AF802100AF10205A1F1C9
:101110003003092B0DD8002303EB830301EB4301BC
:10112000A1F13003449315F8011FA1F13002092AFF
:10113000F2D9DFF82CA10322504600F011FF38B19C
:10114000429AA0EB0A0001238340134301354293E6
:10115000AA461AF8013B782B00F28480DFE813F0EE
:10116000A900820082008200820082008200820048
:10117000820082008200820082008200820082005F
:10118000820082008200820082008200820082004F
:10119000820082008200820082008200820082003F
:1011A000820082008200820082001101820082009F
:1011B000820082008200820082008200820082001F
:1011C000820082008200820082008200820082000F
:1011D00082008200820082008200820082008200FF
:1011E00082008200820082008200C700C700C70020
:1011F00082008200820082008200820082008200DF
:1012000082008200820082008200820082008200CE
:10121000CA0082008200FC008200820082008200FC
:101220008200820082000701DE00C700C700C700FD
:1012300082000E018200820082008200E000EE0047
:10124000F20082008200F9008200DE00820082004B
:10125000CA0000BF710F0008ED0F000821600008F0
:1012600090610008032348930A2343936368002B8B
:101270004DDD429B580624D5489B022B40F38380CA
:10128000042B40F38780474B002B3FF40EAF01AB9C
:10129000224642A93046AFF3008001283FF4ECAE6D
:1012A00002287FF402AF459818B1A3895B067FF549
:1012B000E4AE4FF0FF30E0E6A29B304698470028AE
:1012C000F1D122681378FB5C1907D5D5636846997C
:1012D000013B481C002B21464690636002F101024D
:1012E000EADD22601378FB5C1907C5D5EEE705231C
:1012F0004893BBE7429A42F40072429210226E2B4E
:1013000043921DD8032348936368002BB1DCA29B52
:101310002146304698470028ABD0C4E70A22EEE7C2
:10132000429BDA063FF5C1AE019A4699101D019025
:10133000DB0713684CBF19801960B6E60823439396
:101340000423E0E7429B43F4087342931023439342
:10135000F6E70223489389E75146404601F068F9D1
:10136000429B43F04003429382460123CBE7429BDA
:1013700043F0400342930023489377E700234393CD
:10138000C0E7554671E601AB224642A9304600F05F
:101390000BF882E701AB224642A9304600F06CF818
:1013A0007BE700BF000000002DE9F8430D4614461E
:1013B000AA68896907462AB9002914BF4FF0FF328D
:1013C0000122AA602A68D00603D41A68101D18608A
:1013D0001668DFF8A0804FF0000901B3012937D06B
:1013E00002293BD123681A7818F80220120735D455
:1013F0002A68D10609F1010903D41B7806F8013BDC
:1014000023686168AA6801390133013AC4E90031EF
:10141000AA606AB1002904DDA9690029DED1236828
:10142000E6E7D5F880312146384698470028F3D0C2
:101430002B6813F0100305D1EA680132EA60AA694B
:1014400002B133702B694B4400202B61BDE8F88357
:1014500023686A691878125C002AC9D1B9F1000FB3
:10146000E6D101290846F1D02B6813F01003E9D129
:10147000E2E700BF216000082DE9F04F87B00C467D
:10148000074615468648874A00938B688969864EC9
:10149000032908BF1046019096E8070003F1FF3CBE
:1014A0000DF10C0ABCF5AE7F8AE8070040F2B0806F
:1014B0006FF4AE7103EB010940F25D13A360A04627
:1014C0004FF0000B58F81C2B42F450622260464645
:1014D0002B68DAF800001978022200F041FD50B3C1
:1014E000BBF1010F0CD0BBF1020F00F0B280A3687A
:1014F0005A1EA260A3B94FF0010B0AF1040AE7E7F4
:10150000D4E900321AB9082243F40073626023F46C
:10151000A0632360A3685A1EA260002B00F08A809B
:101520002B685A1C2A601B7806F8013B6B68013B4C
:10153000002B6B6073DD0BF1010BBBF1030FDCD1F2
:101540006168002967D0C1F11001584B60691944E6
:1015500001F06EF8A368002B00F09F804FF0000AA6
:1015600006E02B6801332B60A368013BA36003B343
:10157000D5F800E062699EF800C012F80C102268ED
:101580003046B9B1BCF1300F22F4106155D0216062
:101590009EF8003000F8013B06466B68013B002BCB
:1015A000294638466B60DCDCD4F880319847002847
:1015B000DAD02268D1050CD5464507D916F8011CAA
:1015C000D4F87C312A463846013E9847464562D0D9
:1015D000226812F0100211D132706368019D384602
:1015E0004146A84723689A0646D500990B681A1DFC
:1015F0000A601B681860E3680133E3602369A6EBA7
:101600000806564433442361002007B0BDE8F08F3C
:101610004FF0000953E70A236360062195E7D4F8E9
:101620008031294638469847002884D022684FF0F8
:10163000000ABFE74FF0020B5FE71205A7D50133A1
:101640000AF1010AB9F1000FA7D0A36009F1FF392F
:10165000A3E7236803F4C062B2F5007F7FF470AFA4
:1016600043F480732360A368102262605A1EA26054
:10167000002B3FF465AF53E7009D2A68DF0702F1B6
:10168000040103D5296013681880B4E7009B196032
:1016900013681860AFE70120B7E79A4689E700BFF3
:1016A000152B0008DD1E0008146000089C6100086E
:1016B00000207047024A0349034800F029BC00BFDC
:1016C000500000201D1A0008040000200C4B416847
:1016D000994210B5044601D000F0A0F9A168094B69
:1016E000994202D0204600F099F9E168064B9942F0
:1016F00004D02046BDE8104000F090B910BD00BFF6
:1017000084000020EC0000205401002000207047DD
:101710002DE9F8432A4C2B49DFF8BC90DFF8BC8058
:10172000294FC4F83811002504230822294604F162
:101730005C00264EE360C4E90055C4E90455A56089
:101740006566A561FEF788FE214B6367082229467E
:1017500004F1C400C4E90849C4E90A87C4E91A5578
:10176000C4E91E552567C4F8CC50C4F880502663E0
:10177000FEF772FE174BC4F8DC30294604F168030B
:10178000082204F59670C4F88830C4E92398C4E9A7
:101790002576C4E93455C4E93855C4F8D850C4F89E
:1017A0003451C4F8E850FEF757FE04F1D003C4E901
:1017B0003D98C4E93F76C4F8F030BDE8F88300BF37
:1017C00084000020B5160008450C0008690C0008CC
:1017D0000900010012000200DD0B0008050C0008E2
:1017E000F8B5254BD3F838310646002B3CD0234FB3
:1017F000D7E90134013B04D51DE05A1C04F168040B
:1018000019D0B4F90C50013B002DF6D11C4BE3600C
:10181000C4E90155C4E9045565662560A56108223F
:10182000294604F15C00FEF717FEC4E90D55C4E932
:1018300012552046F8BD3D680DB12F46D8E74FF44C
:10184000D671304600F050F9044680B10423C0E957
:1018500000530C302946A0604FF4D0722546FEF7A5
:10186000FBFD3C602F46C3E7FFF752FFBFE70C23A9
:1018700038603360DDE700BF8400002050000020A6
:101880000100FFFF036A03B17047044B044AD3F819
:1018900038310262002BF7D13AE700BF8400002004
:1018A000CD160008704700BF704700BF024A0349C9
:1018B000002000F02DBB00BF50000020B116000832
:1018C000024A0349002000F023BB00BF5000002063
:1018D0000D17000838B5074D0022044608462A6057
:1018E00001F04EF9431C00D038BD2B68002BFBD013
:1018F000236038BDC8010020B1F90C302DE9F0415A
:101900001E070C4680463DD44A68002A56DDE56A2B
:10191000002D34D00022D8F80060C8F8002013F45D
:101920008052216A57D101234046A847451C0246F0
:1019300066D0B4F90C30E56A216A580705D56368AA
:10194000D21A636B0BB1236CD21A00234046A8470E
:10195000431C42D00023636023692360A389DF0412
:1019600000D56065616BC8F8006041B104F14403C3
:10197000994202D0404600F037F90023636300200B
:10198000BDE8F0810E69002EF9D09B070D6808BFF5
:101990004B690E6018BF0023AD1B8B600BE02B461C
:1019A0003246216AA76A4046B847B0F1000CA5EB61
:1019B0000C05664406DD002DF1DCE0E70A6C002A28
:1019C000A5DCDCE7B4F90C3043F04003A3814FF011
:1019D000FF30BDE8F081626DAFE7D8F80010B4F9D0
:1019E0000C301D29F0D80C4ACA40D507ECD5226925
:1019F000226000226260DA04B4D50029B1D0B1E7D8
:101A0000D8F80030002B94D01D2B01D0162BD9D143
:101A1000C8F80060B3E700BF010040200B69B3B114
:101A200010B5044682B008B1036A5BB1B1F90C305D
:101A300013B9002002B010BD204602B0BDE810402E
:101A4000FFF75ABF0191FFF71DFF0199EEE7002054
:101A5000704700BFB8B138B50D4A03691568044630
:101A60002BB10DB12B6A53B1B4F90C300BB9002076
:101A700038BD21462846BDE83840FFF73DBF28461F
:101A8000FFF700FFF0E7034A0349044800F040BABB
:101A900000000020500000201D1A00080400002053
:101AA00070B5104E336805460C46B3B12146284642
:101AB00000F07CFF431C0CD0C41C24F00304A042A3
:101AC00005D0211A284600F071FF013001D02046D0
:101AD00070BD4FF0FF34204670BD194600F066FF20
:101AE0003060E3E7C00100202DE9F843CD1C25F06C
:101AF000030508350C2D38BF0C25002D064618DBD4
:101B0000A94216D8DFF8DC8000F0DEFDD8F804200A
:101B1000A2B1144603E0636822467BB11C462368E9
:101B20005B1BF8D40B2B1FD89442636854D05360CE
:101B30000CE00C2333600020BDE8F88329463046D2
:101B4000FFF7AEFF431C044619D00560304600F095
:101B5000BDFD04F10B00231D20F00700C21A1CBFBD
:101B60001B1AA350BDE8F88361199442256014BF85
:101B70005160C8F80410635163684B60E6E7D8F819
:101B800004701FB33C467F68002FFBD123683946A1
:101B9000304604EB030900F009FF814516D12368A4
:101BA000ED1A29463046FFF77BFF01300ED023683F
:101BB000D8F804202B442360536883B1A34203D098
:101BC0001A465B689C42FBD10023B0E70C233360CC
:101BD000304600F07BFDAEE7C8F80430B6E7C8F841
:101BE0000470B3E7C0010020002950D038B551F887
:101BF000043C0C1F002BB8BFE418054600F064FD40
:101C0000274A13682BB1A3420CD92168601883427C
:101C10002CD0636028461460BDE8384000F056BD03
:101C2000A3420FD81A465B68002BF9D111685018EF
:101C3000844217D02CD3636054602846BDE83840F6
:101C400000F044BD11685018A04214D020D821687B
:101C500060188342EFD118685B680844C4E9000348
:101C60005460EAE723680B441360E6E718685B6892
:101C700008442060CDE72068014450188342116079
:101C8000DBD1D3E900040144C2E90014D5E7704771
:101C90000C232B602846BDE8384000F017BD00BF7C
:101CA000C401002088420ED98B1883420BD900EB67
:101CB000020C002A6ED0624613F801CD02F801CD65
:101CC0009942F9D170470F2A0FD8034602F1FF3C21
:101CD000002A5FD00CF1010C013B8C4411F8012B60
:101CE00003F8012F6145F9D1704740EA01039B07D2
:101CF00051D1A2F1100370B501F1200C23F00F05B2
:101D000001F1100E00F11004AC441B095EF8105CE8
:101D100044F8105C5EF80C5C44F80C5C5EF8085CFF
:101D200044F8085C5EF8045C44F8045C0EF1100EA4
:101D3000E64504F11004E9D1013312F00C0F01EB78
:101D4000031102F00F0400EB031328D0043C24F02D
:101D500003064FEA940C1E441C1F8E465EF8045B7B
:101D600044F8045FB442F9D10CF1010402F003021B
:101D700003EB840301EB840102F1FF3C4AB10CF157
:101D8000010C013B8C4411F8012B03F8012F614534
:101D9000F9D170BD704702F1FF3C03469AE7224635
:101DA000EAE700BF242B2DE9F84F43D8012B41D09F
:101DB000804649481F468E4675461EF801BB10F8FE
:101DC0000B4014F00804F7D1BBF12D0F6FD0BBF11D
:101DD0002B0F08BF9EF800B06FF0004908BF05F157
:101DE000020E73BBBBF1300F4BD00A273B460025D8
:101DF000B9FBF7F6284607FB169A05E03AD007FB31
:101E000000C001251EF801BBABF1300CBCF1090F7D
:101E100006D9ABF1410CBCF1190F19D8ABF1370C55
:101E200063451EDDB5F1FF3FECD08642E6D24FF0B0
:101E3000FF35E7E700F088FE162303600020BDE8C9
:101E4000F88F102BD3D1BBF1300F23D01F46CEE734
:101E5000ABF1610CBCF1190F03D8ABF1570C634522
:101E6000E0DC6B1C2BD054B9002AE8D085BB116094
:101E7000BDE8F88FE245C2DA4FF0FF35C2E74042D5
:101E8000F2E79EF8003003F0DF03582B08D0082754
:101E90003B46ACE79EF8000000F0DF005828D5D1A3
:101EA00010279EF801B03B460EF1020E9FE79EF808
:101EB00000B04FF0004905F1020E012491E7222302
:101EC000C8F8003032B10EF1FF3148461160CFE75B
:101ED0008146F8E74846B2E72160000862E700BFA4
:101EE00010B4044C8446134620685DF8044B0A463F
:101EF000614657E70000002010B4044C84461346A6
:101F000020685DF8044B0A4661464BE7000000205C
:101F10002DE9F8430746884616464FF00009D6E9F2
:101F20000154013D10D4A389012B08D9B4F90E3016
:101F300001332146384602D0C04749EA0009013D35
:101F40006B1C04F16804EED13668002EE7D14846D8
:101F5000BDE8F88300000000000000000000000061
:101F600001F0FF01102A2BDB10F0070F08D010F84A
:101F7000013B013A8B422DD010F0070F42B3F6D14E
:101F8000F0B441EA012141EA014122F007047FF067
:101F900000070023F0E80256083C85EA010586EABE
:101FA000010685FA47F5A3FA87F586FA47F6A5FAFA
:101FB00087F68EB9EED1F0BC01F0FF0102F0070206
:101FC00032B110F8013B013A83EA010313B1F8D1B1
:101FD0000020704701387047002D06BF3546033892
:101FE000073815F0010F07D1013015F4807F02BFCB
:101FF000013015F4C03F0130F0BC0138704700BF1C
:1020000038B52F4B1B6805460C4613B11A6A002AD7
:102010004BD0B4F90C3018071CD5226922B313F049
:10202000010107D0616900204942A060A1613AB175
:10203000002038BD980758BF6169A160002AF7D118
:10204000190658BF1046F4D543F04003A3814FF062
:10205000FF3038BDD9062CD55A0712D4226943F077
:102060000803A381002ADAD103F42071B1F5007FBF
:10207000D5D02146284600F02BFBB4F90C3022695C
:10208000CDE7616B51B104F14402914204D028467E
:10209000FFF7AAFDB4F90C30002262632269002127
:1020A000C4E9002123F02403D9E71846FFF7EAFB2F
:1020B000AFE7092243F040032A60A381C7E700BFCE
:1020C00000000020844641EA000313F003036DD1B1
:1020D000403A41D351F8043B40F8043B51F8043BEB
:1020E00040F8043B51F8043B40F8043B51F8043BF2
:1020F00040F8043B51F8043B40F8043B51F8043BE2
:1021000040F8043B51F8043B40F8043B51F8043BD1
:1021100040F8043B51F8043B40F8043B51F8043BC1
:1021200040F8043B51F8043B40F8043B51F8043BB1
:1021300040F8043B51F8043B40F8043B51F8043BA1
:1021400040F8043B51F8043B40F8043B51F8043B91
:1021500040F8043B403ABDD2303211D351F8043B31
:1021600040F8043B51F8043B40F8043B51F8043B71
:1021700040F8043B51F8043B40F8043B103AEDD2E0
:102180000C3205D351F8043B40F8043B043AF9D231
:10219000043208D0D2071CBF11F8013B00F8013B04
:1021A00001D30B8803806046704700BF082A13D311
:1021B0008B078DD010F003038AD0C3F10403D21A29
:1021C000DB071CBF11F8013B00F8013B80D331F85D
:1021D000023B20F8023B7BE7043AD9D3013A11F8DD
:1021E000013B00F8013BF9D20B7803704B78437048
:1021F0008B7883706046704738B50C46084D84462E
:10220000114620461A4600232B60644600F0D8FC95
:10221000431C00D038BD2B68002BFBD0236038BD99
:10222000C80100202DE9F041144641B30AB3064627
:102230000D4600F0CDFB8442074602D8B4EB500FA8
:1022400013D821463046FFF74FFC804650B1BC42C0
:102250002246294628BF3A46FFF734FF2946304632
:10226000FFF7C2FC4046BDE8F081A8464046BDE805
:10227000F081A046FFF7B8FC4046BDE8F081BDE81C
:10228000F0411146FFF730BC2DE9F84F92461F464A
:102290000A698B68DDF828909A42B8BF1A46CAF8D6
:1022A000002091F843300C46064613B10132CAF8BB
:1022B0000020226891065FD5DAF800300233CAF8B0
:1022C0000030226812F0060F11461DD1E1689942D4
:1022D000D8BF114618DD4FF0000804F1190B05E0D6
:1022E000E568DAF80030ED1A45450CDD01235A4661
:1022F00039463046C847013008F10108F0D14FF0A7
:10230000FF30BDE8F88F216894F84330003B18BFD8
:1023100001238A060AD5E1185A1C302081F84300AF
:10232000224494F8451082F84310023304F143022A
:1023300039463046C8470130E1D02368DAF800500A
:10234000216903F00603042BD4E902201BD08A4242
:1023500020DD4FF00008521A90441A34002501E0A5
:10236000454517DA0123224639463046C847013031
:1023700005F10105F4D1C2E712F0060F0DD0003BC4
:1023800018BF0123D2E7401B8A4220EAE078E2DC52
:102390000028E2DC0020BDE8F88FE168DAF80030C0
:1023A0009942D8BF114696DCAEE700BF2DE9F04751
:1023B000174684B00A7E0C9D0C460646984601F1ED
:1023C000430C002A35D0A2F15803D9B2202969D88C
:1023D000202B67D8DFE813F0E60066006600660091
:1023E0006600660066006600660066006600AC0077
:1023F0007000660066006600660070006600660099
:102400006600660021008300C60066006600B60014
:102410006600830066006600EC002B682268616934
:10242000181D286010061B6802D4520600F1E080D7
:1024300019600023E1462361CDF800803B4603AAE2
:1024400021463046FFF720FF013020D023694A465D
:1024500039463046C047013019D02368E068DDF8BE
:102460000C909B0718D5484516DD002504F1190A84
:1024700004E0E068A0EB0903AB420DDD0123524606
:1024800039463046C047013005F10105F1D14FF022
:10249000FF3004B0BDE8F0874845B8BF484604B0F7
:1024A000BDE8F08784F84220012004F142090023AE
:1024B000206184F84330BFE72A682368111D18069D
:1024C000296002D4590600F1958010680146002861
:1024D0006268C0F2938054484FF00A0E15E02068FD
:1024E0002B6810F0800F53F8041B02D1400648BF40
:1024F00089B26F2A4C482B6014BF4FF00A0E4FF080
:10250000080E0023626884F84330002AA26051DB81
:10251000236823F00403236000294BD1002A7BD1D8
:10252000E146BEF1080F56D0ACEB0903236183E707
:102530002B681A6804332B6004F1420984F84220A6
:102540000120B4E72B686268191D2960D3F8009058
:1025500000214846FFF704FD002863D0A0EB0900E6
:102560006060A4E7236843F02003236078222F48AB
:1025700084F845202A6813F0800F52F8041B03D119
:1025800013F0400F18BF89B22A60DA0744BF43F046
:102590002003236019B9236823F0200323604FF040
:1025A000100EAEE7582384F845301F482368E1E752
:1025B0002368DBE77546E146B1FBF5F305FB131A2B
:1025C0000A46AA4210F80A1009F8011D1946F3D26A
:1025D000BEF1080FA8D12368DD07A5D5626823697D
:1025E0009A42A1DC302309F8013C09F1FF399BE74D
:1025F00019801EE7B2F90010084668E72D20002A6E
:10260000A26084F8430002DB23F0040323600A2560
:1026100005484942AE46CEE7037884F8423004F1DB
:1026200042097EE7606842E7BC610008D0610008AB
:1026300070B50C785E2C864624D00023481C9C463E
:10264000002263F3070263F30F2263F3174263F37D
:102650001F620EF58071734643F8042B8B42FBD149
:1026600074B18CF001010EF80410451C15F8013C02
:102670002D2B0ED05D2B0AD01BB11C462846F2E74D
:10268000013870BD01234C78881C9C46D8E7284649
:1026900070BD90F801C0BCF15D0FEED06445ECDC7C
:1026A000661C02300EEB060202F8011BA2EB0E03C1
:1026B000013B9C45F8DCACEB0403013B6445A8BF3F
:1026C00000230235F418D1E7704700BF704700BF00
:1026D00070B5B1F90C300C46990796B007D504F1E6
:1026E00047030122C4E90432236016B070BDB4F977
:1026F0000E100029054629DB6A4600F02BFA002857
:1027000022DB4FF480612846019EFFF7EDF988B384
:10271000A389206043F0800306F47046A381B6F5D8
:10272000005F4FF48063C4E90403DED1B4F90E10F6
:10273000284600F029F90028D7D0A38923F0030305
:1027400043F00103A381D0E7B4F90C3013F0800FFC
:1027500014BF40264FF4806631462846FFF7C4F97F
:1027600040B1A389206043F08003C4E90406A3813B
:1027700016B070BDB4F90C309A05B6D423F003033B
:1027800004F1470243F002030121C4E90421A381BB
:102790002260AAE770B50C46B1F90E10002996B078
:1027A00015461E460FDB6A4600F0D4F900280ADB06
:1027B000019B03F47043A3F50053B3FA83F34FF482
:1027C00080625B0908E0A28912F0800F4FF00003DD
:1027D00014BF40224FF48062002033602A6016B09C
:1027E00070BD00BF38B50C46084D844611462046E2
:1027F0001A4600232B60644600F0DAF9431C00D02F
:1028000038BD2B68002BFBD0236038BDC8010020E9
:1028100001F144032DE9F0410C46496B994214D073
:10282000A66B77003A46FFF7FDFC054630B300EB98
:102830000608014632464046FFF744FCC4E90D57FE
:10284000C4F800800020BDE8F0814FF48061FFF7FC
:102850004BF998B194F846304FF48062C4E90D0208
:1028600080F8FF3394F8453080F8FE3394F8442024
:1028700080F8FD2300F2FD332360E3E74FF0FF30E3
:10288000E1E700BF70B54C1C2BD00E460546144640
:1028900010B1036A002B4CD0B4F90C3023F02002A5
:1028A0005807A28106D4D9061BD51B0734D442F0A1
:1028B0000402A281626B6368F6B2AAB1A26B9A426B
:1028C00009DD23685A1E226003F8016C6368013336
:1028D0006360304670BD21462846FFF799FF002807
:1028E000EFD04FF0FF36F4E7226921682AB18A421F
:1028F00003D211F8012CB2421ED02246C4E90F13B4
:1029000004F1440003236063A36302F8466F0123CC
:10291000C4E90023304670BD21462846FFF77EF803
:102920000028DED1B4F90C20A06022F00802A061DA
:10293000BDE7FEF7A7FFAFE701390133C4E9001394
:10294000C7E700BF10B4044C03460A4620685DF890
:10295000044B1946FFF796BF0000002038B50C461F
:10296000084D8446114620461A4600232B606446D3
:1029700000F03CF9431C00D038BD2B68002BFBD085
:10298000236038BDC801002038B5074D0022044639
:1029900008462A6000F004F9431C00D038BD2B68BB
:1029A000002BFBD0236038BDC801002038B5074D8F
:1029B0000022044608462A6000F00AF9431C00D0B1
:1029C00038BD2B68002BFBD0236038BDC801002028
:1029D00051F8043C181F002BBCBF0B58C01870479F
:1029E0002DE9F047074649480E46354616F801EBF3
:1029F00010F80EC01CF0080CF7D1BEF12D0F5AD004
:102A0000BEF12B0F03BF96F800E06446AE1C64468F
:102A10004BB9BEF1300F5CD00A23DFF8F4804FF0E1
:102A2000050A99460AE0102B4AD04FF0FF38B8FB50
:102A3000F3F803FB08FA6FEA0A0A994600252846CC
:102A400005E02CD009FB00C0012516F801EBAEF122
:102A5000300CBCF1090F06D9AEF1410CBCF1190FD5
:102A60000BD8AEF1370C634510DDB5F1FF3FECD06C
:102A70004045E6D94FF0FF35E7E7AEF1610CBCF118
:102A8000190F03D8AEF1570C6345EEDC6B1C0BD06D
:102A900004B140420AB165B91160BDE8F087D44580
:102AA000D0DD4FF0FF35D0E722233B602846002AD7
:102AB000F3D0711EF0E796F800E00124AE1CA7E702
:102AC000BEF1300F11D04FF00F0A6FF070489946E9
:102AD000B4E7337803F0DF03582B0BD008234FF013
:102AE000070A6FF060489946A8E7307800F0DF00E9
:102AF0005828E8D14FF0100996F801E04FF00F0A7E
:102B000002366FF070484B4698E700BF216000081E
:102B10009999991964E700BF10B4044C8446134690
:102B200020685DF8044B0A46614659E70000002022
:102B300010B4044C8446134620685DF8044B0A46E2
:102B400061464DE700000020014B1868704700BF48
:102B50000000002070B50C46084D034600262046B4
:102B600011461C462E6000F013F8431C00D070BDC7
:102B70002B68002BFBD0236070BD00BFC801002074
:102B8000024B58221A604FF0FF307047C8010020F6
:102B9000024B58221A604FF0FF307047C8010020E6
:102BA000024B58221A600020704700BFC801002065
:102BB000024B58221A604FF0FF307047C8010020C6
:102BC000024B58221A604FF0FF307047C8010020B6
:102BD000044A05491368002B08BF0B4618441060CF
:102BE00018467047CC01002080040020024B582278
:102BF0001A604FF0FF307047C801002081F000419B
:102C000002E000BF83F0004330B54FEA41044FEAD1
:102C1000430594EA050F08BF90EA020F1FBF54EA6C
:102C2000000C55EA020C7FEA645C7FEA655C00F008
:102C3000E2804FEA5454D4EB5555B8BF6D420CDDD9
:102C40002C4480EA020281EA030382EA000083EA5C
:102C5000010180EA020281EA0303362D88BF30BDFC
:102C600011F0004F4FEA01314FF4801C4CEA113152
:102C700002D0404261EB410113F0004F4FEA0333B1
:102C80004CEA133302D0524263EB430394EA050F3C
:102C900000F0A780A4F10104D5F1200E0DDB02FAAB
:102CA0000EFC22FA05F2801841F1000103FA0EF23F
:102CB000801843FA05F359410EE0A5F120050EF105
:102CC000200E012A03FA0EFC28BF4CF0020C43FA36
:102CD00005F3C01851EBE37101F0004507D54FF043
:102CE000000EDCF1000C7EEB00006EEB0101B1F593
:102CF000801F1BD3B1F5001F0CD349085FEA3000D9
:102D00004FEA3C0C04F101044FEA445212F5800FE3
:102D100080F09A80BCF1004F08BF5FEA500C50F180
:102D2000000041EB045141EA050130BD5FEA4C0C63
:102D3000404141EB0101013C28BFB1F5801FE9D2C0
:102D400091F0000F04BF01460020B1FA81F308BFE3
:102D50002033A3F10B03B3F120020CDA0C3208DDAF
:102D600002F1140CC2F10C0201FA0CF021FA02F18A
:102D70000CE002F11402D8BFC2F1200C01FA02F1FA
:102D800020FA0CFCDCBF41EA0C019040E41AA2BF1F
:102D900001EB0451294330BD6FEA04041F3C1CDAE7
:102DA0000C340EDC04F11404C4F1200220FA04F007
:102DB00001FA02F340EA030021FA04F345EA0301B1
:102DC00030BDC4F10C04C4F1200220FA02F001FA73
:102DD00004F340EA0300294630BD21FA04F02946F5
:102DE00030BD94F0000F83F4801306BF81F480118E
:102DF0000134013D4EE77FEA645C18BF7FEA655C01
:102E000029D094EA050F08BF90EA020F05D054EAD2
:102E1000000C04BF1946104630BD91EA030F1EBFD7
:102E20000021002030BD5FEA545C05D140004941DB
:102E300028BF41F0004130BD14F580043CBF01F5CE
:102E4000801130BD01F0004545F0FE4141F47001B4
:102E50004FF0000030BD7FEA645C1ABF194610468F
:102E60007FEA655C1CBF0B46024650EA013406BF90
:102E700052EA033591EA030F41F4002130BD00BF4F
:102E800090F0000F04BF0021704730B54FF480640C
:102E900004F132044FF000054FF0000150E700BF8D
:102EA00090F0000F04BF0021704730B54FF48064EC
:102EB00004F1320410F0004548BF40424FF00001D9
:102EC0003EE700BF42004FEAE2014FEA31014FEA1C
:102ED00002701FBF12F07F4393F07F4F81F060516B
:102EE000704732F07F4208BF704793F07F4F04BFB6
:102EF00041F40021704730B54FF4607401F0004593
:102F000021F000411CE700BF50EA010208BF7047F2
:102F100030B54FF000050AE050EA010208BF7047E3
:102F200030B511F0004502D5404261EB41014FF44C
:102F3000806404F132045FEA915C3FF4D8AE4FF054
:102F400003025FEADC0C18BF03325FEADC0C18BF37
:102F5000033202EBDC02C2F1200300FA03FC20FA88
:102F600002F001FA03FE40EA0E0021FA02F11444D5
:102F7000BDE600BF53B94AB9002908BF00281CBFED
:102F80004FF0FF314FF0FF3000F06AB9ADF1080C9F
:102F90006DE904CE00F006F8DDF804E0DDE9022377
:102FA00004B070472DE9F047089D0E4604460F46D1
:102FB000002B4AD194468C45B2FA82F260D942B1D4
:102FC000C2F12003974020FA03F30CFA02FC1F43DE
:102FD00094404FEA1C4E1FFA8CF6B7FBFEF1230C0F
:102FE0000EFB117743EA074301FB06F098420AD92A
:102FF0001CEB030301F1FF3780F01581984240F28A
:103000001281023963441B1AA4B2B3FBFEF00EFB1B
:10301000103344EA034400FB06F6A6420AD91CEB2F
:10302000040400F1FF3380F00081A64240F2FD80ED
:103030006444023840EA0140A41B00211DB1D44081
:103040000023C5E90043BDE8F0878B4205D90DB1E7
:10305000C5E9000100210846F5E7B3FA83F100292C
:1030600046D1B34202D3824200F2F580841A66EB65
:10307000030201201746002DE5D0C5E90047E2E72D
:10308000002A40F09380A1EB0C034FEA1C471FFA83
:103090008CFE0121B3FBF7F607FB1630230C43EA45
:1030A00000430EFB06F0984208D91CEB030306F11F
:1030B000FF3802D2984200F2D08046461B1AA4B2D2
:1030C000B3FBF7F007FB103344EA03440EFB00FEAA
:1030D000A64508D91CEB040400F1FF3302D2A64533
:1030E00000F2B6801846A4EB0E0440EA0640A5E7BD
:1030F000C1F120078B4022FA07FC4CEA030C06FAC8
:1031000001FE20FA07F426FA07F344EA0E0400FA57
:1031100001F84FEA1C404FEA1449B3FBF0FE1FFAD6
:103120008CF600FB1E3349EA03430EFB06F9994572
:1031300002FA01F20BD91CEB03030EF1FF3A80F007
:103140008580994540F28280AEF1020E6344A3EB84
:103150000909A4B2B9FBF0F300FB139944EA09444E
:1031600003FB06F6A64208D91CEB040403F1FF306A
:1031700068D2A64266D9023B644443EA0E40A41BCF
:10318000A0FB02E6B4427346B14652D34FD05DB1C4
:10319000B8EB030264EB090404FA07F722FA01F31F
:1031A0001F43CC40C5E9007400214CE7C2F1200167
:1031B00020FA01F30CFA02FC26FA01F1964033439F
:1031C0004FEA1C471FFA8CFEB1FBF7F007FB101605
:1031D000190C41EA064100FB0EF68E4204FA02F495
:1031E00008D91CEB010100F1FF382DD28E422BD9FA
:1031F00002386144891B9BB2B1FBF7F607FB16113D
:1032000043EA014306FB0EF1994208D91CEB030384
:1032100006F1FF3814D2994212D9023E63445B1A78
:1032200046EA004136E73946EDE6184602E7F04542
:10323000ADD2BEEB020366EB0C060138B146A6E741
:103240004646ECE7034698E74046D3E7D6467EE796
:103250006444023847E708460DE7023E63442DE721
:10326000704700BF2DE9F0478AB00024059406940A
:103270000794089409940094434B1A6B42F010028F
:103280001A631A6B02F010020092009A01941A6BF2
:1032900042F080021A631A6B02F080020192019AD6
:1032A00002941A6B42F001021A631A6B02F00102D7
:1032B0000292029A03941A6B42F008021A631A6B84
:1032C00002F008020392039A04941A6B42F004027B
:1032D0001A631B6B03F004030493049BDFF8B0A094
:1032E00022460221504602F082F8284F22464FF42F
:1032F0000061384602F07BF8DFF898902246802182
:10330000484602F074F801223F21384602F06FF877
:103310000626059606940794DFF87C8005A94046AA
:1033200001F068FF02230593012506950794089490
:1033300005A9504601F05EFF40F63F030593069550
:103340000794089405A9384601F054FF802305939B
:1033500006950794089405A9484601F04BFF05958A
:103360004FF404130693079505A9404601F042FF68
:1033700022462146304602F001F9304602F00EF9AD
:103380000AB0BDE8F08700BF00380240000C0240E0
:1033900000000240000802400010024030B583B037
:1033A000044608466D4601AB2A460549FCF774FF02
:1033B00095E8030084E80300204603B030BD00BF59
:1033C0002461000830B52DED028B83B0344B83426D
:1033D00008D009223349324802F071FC03B0BDEC39
:1033E000028B30BD2F4B1B7A702B3AD02E492D48C3
:1033F000FDF786F800283FD02C492A48FDF780F8D1
:10340000002844D02A492748FDF77AF80028E0D15F
:1034100000223F21274801F0EAFF0121264801F060
:10342000DFFF0028D5D09FED258AB0EE480A24485A
:1034300002F068FDB0EE480A224802F063FDB0EEEB
:10344000480A214802F05EFD0021204801F058FAA8
:1034500000211F4801F054FA00211E4801F050FAE3
:10346000B7E71D4D6C460F492046FFF797FF94E8DC
:10347000030085E80300B9E701223F210D4801F070
:10348000B6FF0023154A1370154A1370B4E70022E3
:103490003F21084801F0ABFF104B01221A70B1E741
:1034A0008002002074020020306100083C610008A6
:1034B00048610008000C0240001002400000FA437E
:1034C0004C02002024020020FC010020E803002020
:1034D00058030020C8020020F4010020F101002060
:1034E000F001002070470000012800D070472E4BEB
:1034F0001B78002BFAD12DE9F04186B02B492C48DE
:10350000FCF7FEFF00284CD101212A4801F068FF9A
:103510000028F9D1DFF8D4800021404601F072FA8A
:10352000254F0021384601F06DFA244E0021304627
:1035300001F068FA00240394214B029301250195C0
:10354000022300931F4B224641461F4802F0D4FB42
:1035500003941E4B02934FF0FF3301934FF400632B
:1035600000931B4B224639461A4802F0C5FB0394D0
:10357000194B0293019580230093184B2246314644
:10358000174802F0B9FB174B04938DF8144004A8B8
:10359000FCF7F6FE82B204A9134802F07FF9024B51
:1035A0001D7006B0BDE8F081F00100204861000800
:1035B000740200200010024058030020C8020020BE
:1035C00030040020000002404C020020A003002034
:1035D000000C0240240200201003002000080240DA
:1035E000FC0100207265616480020020E803002075
:1035F0000368134A934221D010B50446B3F1804FBB
:1036000010D023680F4A93420BD002F58062934298
:103610000CD023680C4A934203D002F578429342BF
:1036200008D010BD094802F0B9FBEAE7084802F0EB
:10363000B5FBEEE7074802F0B1FBF2E7704700BFC9
:103640000000014000040040000C00404C0200203B
:1036500024020020FC01002072B6FEE710B596B0EF
:1036600000241294139414941594109411940994B2
:103670000A940B940C940D940E940F9420222146DE
:1036800001A8FCF7E9FE2A482A4B0360A723436000
:1036900084604FF4FA73C36004614461846100F094
:1036A00095FF002837D14FF48053129312A9204878
:1036B00001F097F8002830D11D4800F0B3FF002832
:1036C0002DD100231093119310A9194801F0E0F9AE
:1036D00038BB6023099300220A920B920C920D9240
:1036E0000E920F9209A9124801F000F8D8B90023F0
:1036F000019302930393049305934FF400520692AF
:10370000089301A90A4801F009FA70B9084800F0C5
:103710001FFC16B010BDFFF79FFFFFF79DFFFFF7DF
:103720009BFFFFF799FFFFF797FFFFF795FF00BF9C
:10373000300400200000014000B58FB000230A9340
:103740000B930C930D9308930993019302930393A6
:1037500004930593069307931F484FF0804202603D
:103760005322426083604FF4FA62C2600361836156
:1037700000F02CFF30BB4FF480530A930AA916487F
:1037800001F02FF800BB144800F04CFFF0B9002303
:103790000893099308A9104801F07AF9C0B9602389
:1037A00001934FF49673029300220392059201A9AC
:1037B000094800F09BFF68B9074800F0C9FB0FB04B
:1037C0005DF804FBFFF748FFFFF746FFFFF744FFF4
:1037D000FFF742FFFFF740FFE803002008B50A4863
:1037E0000A4B03604FF4E133436000238360C360FE
:1037F00003610C2242618361C36102F01FF800B9CA
:1038000008BDFFF729FF00BF800200200010014023
:1038100000B58FB000230A930B930C930D9308937C
:1038200009930193029303930493059306930793DB
:103830001F48204A02605322426083604FF4FA72AC
:10384000C2600361836100F0C1FE30BB4FF480535E
:103850000A930AA9164800F0C4FF00BB144800F000
:10386000E1FEF0B900230893099308A9104801F07C
:103870000FF9C0B9602301934FF4967302930022AD
:103880000392059201A90A4800F030FF68B9084880
:1038900000F05EFB0FB05DF804FBFFF7DDFEFFF705
:1038A000DBFEFFF7D9FEFFF7D7FEFFF7D5FE00BF1F
:1038B000A00300200004004000B58FB000230A934D
:1038C0000B930C930D930893099301930293039325
:1038D00004930593069307931F48204A02605322DE
:1038E000426083604FF4FA62C2600361836100F05A
:1038F0006DFE30BB4FF480530A930AA9164800F0BE
:1039000070FF00BB144800F08DFEF0B9002308934F
:10391000099308A9104801F0BBF8C0B960230193CE
:103920004FF49673029300220392059201A90A486C
:1039300000F0DCFE68B9084800F00AFB0FB05DF843
:1039400004FBFFF789FEFFF787FEFFF785FEFFF711
:1039500083FEFFF781FE00BF5803002000080040EF
:1039600000B58FB000230A930B930C930D9308932B
:10397000099301930293039304930593069307938A
:103980001F48204A02605322426083604FF4FA725B
:10399000C2600361836100F019FE30BB4FF48053B5
:1039A0000A930AA9164800F01CFF00BB144800F057
:1039B00039FEF0B900230893099308A9104801F0D3
:1039C00067F8C0B9602301934FF496730293002205
:1039D0000392059201A90A4800F088FE68B90848D8
:1039E00000F0B6FA0FB05DF804FBFFF735FEFFF705
:1039F00033FEFFF731FEFFF72FFEFFF72DFE00BF6E
:103A000010030020000C004010B596B00024129462
:103A10001394149415941094119409940A940B948B
:103A20000C940D940E940F942022214601A8FCF7CB
:103A300013FD2B482B4B0360A723436084604FF496
:103A4000FA63C36004614461846100F0BFFD002833
:103A500039D14FF48053129312A9214800F0C1FECE
:103A6000002832D11E4800F0DDFD00282FD10023B0
:103A70001093119310A91A4801F00AF848BB60236B
:103A800009934FF496730A9300220B920C920D92B5
:103A90000E920F9209A9124800F028FED8B900230F
:103AA000019302930393049305934FF400520692FB
:103AB000089301A90A4801F031F870B9084800F0EC
:103AC00047FA16B010BDFFF7C7FDFFF7C5FDFFF7BA
:103AD000C3FDFFF7C1FDFFF7BFFDFFF7BDFD00BF51
:103AE000C80200200004014000B595B0302200213A
:103AF00008A8FCF7B1FC00230393049305930693F5
:103B000007930193204A116C41F080511164126CAB
:103B100002F080520192019A02931C4B1A6842F4FF
:103B200080421A601B6803F480430293029B0123C6
:103B300008934FF48033099302220E924FF48003CE
:103B40000F9304231093A82111911292139308A8A4
:103B500001F010F898B90F23039302230493002374
:103B600005934FF4A05306934FF480530793052118
:103B700003A801F069FA20B915B05DF804FBFFF75E
:103B80006BFDFFF769FD00BF003802400070004088
:103B900030B52DED028B85B001F03EFDFFF7A4FF9F
:103BA000FFF760FBFFF75AFDFFF7C6FDFFF716FEB4
:103BB000FFF72EFEFFF780FEFFF7D2FEFFF724FF90
:103BC00009224F494F4802F07AF84F4802F004F9B1
:103BD000002403944D4B0293012501950223009389
:103BE0004B4B22464B494C4802F086F803944B4B12
:103BF00002934FF0FF3301934FF400630093484B5F
:103C000022464849484802F077F80394474B02930C
:103C1000019580230093464B22464649464802F0D0
:103C20006BF8464B1C605C6001F01CFD044618E01C
:103C3000B8EE007AF4EEC77AF1EE10FA56D54FF0EE
:103C4000FF31354802F088F84FF0FF31364802F076
:103C500083F84FF0FF31384802F07EF801F002FDA2
:103C60000446374B1B78002BFBD001F0FBFC001BFC
:103C70001328F6D92849314802F07FF80028EDD002
:103C80002E4A92ED010AD0ED007AB8EEC00A30EE6D
:103C9000670A2C4C84ED000A1B4802F0BFF8B0EE16
:103CA000C08AB0EE480A1C4802F02CF9B0EE480A6F
:103CB0001D4802F027F9B0EE480A1F4802F022F929
:103CC000D4ED007AB0EE007AF4EEC77AF1EE10FA95
:103CD000AEDD0121104802F03FF80121124802F048
:103CE0003BF80121144802F037F8B7E70A4802F020
:103CF00027F80D4802F024F80F4802F021F8ADE74C
:103D00007402002080020020D40100203004002032
:103D100000000240E80300204C020020A003002025
:103D2000000C024058030020240200201003002051
:103D300000080240C8020020FC010020F40100201D
:103D4000F1010020D0010020FEE7FEE7FEE7FEE7DC
:103D5000FEE770477047704708B501F077FC08BD73
:103D600008B5012001F04AFB08BD000008B5024873
:103D700000F014FB08BD00BF3004002008B5024865
:103D800000F00CFB08BD00BFE803002008B50248A6
:103D900000F004FB08BD00BFA003002008B50248E6
:103DA00000F0FCFA08BD00BF5803002008B5024827
:103DB00001F01AFE08BD00BF8002002008B50248CD
:103DC00000F0ECFA08BD00BFC802002008B50248A8
:103DD00000F0E4FA08BD00BF1003002082B000210B
:103DE00000910B4B5A6C42F480425A645A6C02F4B4
:103DF00080420092009A01911A6C42F080521A643B
:103E00001B6C03F080530193019B02B0704700BF0D
:103E10000038024000B587B00368474A934211D08A
:103E2000B3F1804F22D0454A934234D0444A934262
:103E300045D0444A934256D0434A934267D007B094
:103E40005DF804FB00210091404B5A6C42F00102E6
:103E50005A645B6C03F001030093009B0A46182030
:103E600001F08CFB182001F099FBE8E7002101919B
:103E700003F50E331A6C42F001021A641B6C03F056
:103E800001030193019B0A461C2001F077FB1C20D3
:103E900001F084FBD3E7002102912C4B1A6C42F015
:103EA00002021A641B6C03F002030293029B0A468F
:103EB0001D2001F063FB1D2001F070FBBFE7002116
:103EC0000391224B1A6C42F004021A641B6C03F03B
:103ED00004030393039B0A461E2001F04FFB1E20A0
:103EE00001F05CFBABE700210491184B1A6C42F027
:103EF00008021A641B6C03F008030493049B0A462F
:103F0000322001F03BFB322001F048FB97E7002113
:103F100005910E4B5A6C42F002025A645B6C03F03E
:103F200002030593059B0A462B2001F027FB2B205B
:103F300001F034FB83E700BF0000014000040040B3
:103F400000080040000C004000040140003802401E
:103F500000B58DB000230793089309930A930B9340
:103F600003684F4A934211D0B3F1804F26D04D4A97
:103F700093423AD04C4A93424DD04C4A934261D03E
:103F80004B4A934274D00DB05DF804FB00230193BB
:103F9000484B1A6B42F010021A631B6B03F01003BC
:103FA0000193019B4FF400730793022308930123AD
:103FB0000B9307A9404801F01DF9E4E700230293A1
:103FC0003C4B1A6B42F001021A631B6B03F00103B6
:103FD0000293029B202307930223089301230B9350
:103FE00007A9364801F006F9CDE700230393314BCA
:103FF0001A6B42F001021A631B6B03F00103039377
:10400000039B40230793022308930B9307A92B4894
:1040100001F0F0F8B7E700230493264B1A6B42F047
:1040200008021A631B6B03F008030493049B4FF40C
:1040300080530793022308930B9307A9204801F0AC
:10404000D9F8A0E7002305931A4B1A6B42F001023E
:104050001A631B6B03F001030593059B0123079370
:10406000022308930B9307A9144801F0C3F88AE7C9
:10407000002306930F4B1A6B42F004021A631B6B6A
:1040800003F004030693069B40230793022308933F
:1040900003230B9307A90B4801F0ACF873E700BFAB
:1040A000000001400004004000080040000C0040F7
:1040B00000040140003802400010024000000240AD
:1040C000000C02400008024010B588B000230393A2
:1040D0000493059306930793026803F1804303F565
:1040E00088339A4201D008B010BD0024019403F532
:1040F00094335A6C42F010025A645A6C02F0100267
:104100000192019A02941A6B42F001021A631B6B2E
:1041100003F001030293029B4FF4C0630393022355
:104120000493032306930723079303A9054801F08B
:1041300061F822462146252001F020FA252001F0D1
:104140002DFAD0E70000024030B4036A026A22F080
:10415000010202624268846924F0730C0C6844EA2C
:104160000C0423F0020C8B6843EA0C03114DA842A7
:1041700003D005F58065A84205D123F00803CD687A
:104180002B4323F004030B4DA84203D005F58065B3
:10419000A84207D122F440724D6945EA020C8A69AF
:1041A00042EA0C02426084614A684263036230BCA6
:1041B000704700BF0000014030B4036A026A22F475
:1041C000807202624268C46924F0730C0C6844EA8D
:1041D0000C0523F400738C6843EA0423114CA042BD
:1041E00003D004F58064A04206D123F40063CC68B8
:1041F00043EA042323F480630A4CA04203D004F56D
:104200008064A04207D122F440524C6942EA041271
:104210008C6942EA04124260C5614A68C263036263
:1042200030BC70470000014030B4036A026A22F4D7
:10423000805202624468C26922F4E6420D6842EA92
:10424000052223F400538D6843EA0533094DA84243
:1042500003D005F58065A84204D124F480444D695B
:1042600044EA85144460C2614A680264036230BC57
:10427000704700BF0000014010B4036A046A24F0D4
:1042800001040462846924F0F00C4CEA021223F069
:104290000A030B43826103625DF8044B704710B45C
:1042A000036A046A24F010040462846924F4704CE4
:1042B0004CEA023223F0A00343EA01138261036255
:1042C0005DF8044B7047836823F070030B4343F0A1
:1042D000070383607047000090F83D30DBB2012B8C
:1042E00037D1022380F83D300268D36843F00103E0
:1042F000D3600368194A934220D0B3F1804F1DD098
:10430000A2F57C42934219D002F58062934215D007
:1043100002F58062934211D002F5784293420DD0AB
:1043200002F57052934209D0A2F59432934205D01F
:104330001A6842F001021A60002070479A6802F081
:104340000702062A07D01A6842F001021A6000200C
:104350007047012070470020704700BF00000140F7
:104360000268D36823F00103D3600368196A41F23D
:104370001112114208D1196A40F24442114203D18C
:104380001A6822F001021A60012380F83D300020F3
:1043900070477047704770477047704770B5044664
:1043A0000368DE681D6915F0020F10D016F0020FC9
:1043B0000DD06FF002021A610123037703689B6935
:1043C00013F0030F5ED0FFF7E6FF0023237715F00D
:1043D000040F12D016F0040F0FD023686FF0040200
:1043E0001A610223237723689B6913F4407F4FD01F
:1043F0002046FFF7D0FF0023237715F0080F12D0D7
:1044000016F0080F0FD023686FF008021A6104231A
:1044100023772368DB6913F0030F40D02046FFF7B2
:10442000BAFF0023237715F0100F12D016F0100FEB
:104430000FD023686FF010021A61082323772368D6
:10444000DB6913F4407F31D02046FFF7A4FF00233F
:10445000237715F0010F02D016F0010F2DD115F0C2
:10446000800F02D016F0800F2FD115F0400F02D030
:1044700016F0400F31D115F0200F02D016F0200FAA
:1044800033D170BDFFF786FF2046FFF785FF9CE71D
:104490002046FFF77FFF2046FFF77EFFABE7204671
:1044A000FFF778FF2046FFF777FFBAE72046FFF7D0
:1044B00071FF2046FFF770FFC9E723686FF0010224
:1044C0001A612046FFF794F8C9E723686FF080026D
:1044D0001A61204600F04CFBC7E723686FF04002EA
:1044E0001A612046FFF759FFC5E723686FF02002E5
:1044F0001A61204600F03BFBC3E700000368324A24
:10450000904212D0B0F1804F0FD0A2F57C42904281
:104510000BD002F58062904207D002F58062904293
:1045200003D002F57842904203D123F070034A6829
:104530001343254A90422AD0B0F1804F27D0A2F5EC
:104540007C42904223D002F5806290421FD002F557
:10455000806290421BD002F57842904217D002F55B
:104560007052904213D002F5806290420FD002F553
:10457000806290420BD0A2F59832904207D002F5AB
:104580008062904203D002F58062904203D123F40E
:104590004073CA68134323F080034A6913438A684F
:1045A000C2620A688262084A904203D002F58062C1
:1045B000904201D10A690263026842F0040202607B
:1045C00001224261036070470000014040B310B512
:1045D000044690F83D30F3B1022384F83D30214683
:1045E00051F8040BFFF78AFF012384F8463084F862
:1045F0003E3084F83F3084F8403084F8413084F80D
:10460000423084F8433084F8443084F8453084F8EC
:104610003D30002010BD80F83C30FFF7FBFBDBE7AE
:104620000120704740B310B5044690F83D30F3B117
:10463000022384F83D30214651F8040BFFF75EFF5A
:10464000012384F8463084F83E3084F83F3084F803
:10465000403084F8413084F8423084F8433084F8A4
:10466000443084F8453084F83D30002010BD80F897
:104670003C30FFF78EFEDBE70120704730B4036A61
:10468000026A22F0100202624468826922F4E64261
:104690000D6842EA052223F020038D6843EA0513E2
:1046A000114DA84203D005F58065A84206D123F03C
:1046B0008003CD6843EA051323F040030A4DA84266
:1046C00003D005F58065A84207D124F440644D6904
:1046D00044EA85048D6944EA8504446082614A683D
:1046E0008263036230BC70470000014038B590F827
:1046F0003C30012B66D004460D46012380F83C3047
:104700000C2A5AD8DFE802F0075959591B59595950
:104710003059595944000068FFF716FD2268936923
:1047200043F0080393612268936923F004039361C3
:104730002268936929690B43936100203EE0006879
:10474000FFF79CFF2268936943F40063936122683A
:10475000936923F48063936122689369296943EA2A
:1047600001239361002029E00068FFF725FD2268FE
:10477000D36943F00803D3612268D36923F00403AB
:10478000D3612268D36929690B43D361002015E006
:104790000068FFF749FD2268D36943F40063D361E1
:1047A0002268D36923F48063D3612268D3692969BD
:1047B00043EA0123D361002000E00120002384F8B4
:1047C0003C3038BD0220FCE710B4846824F47F4CF0
:1047D00042EA03220A4342EA0C0282605DF8044B7B
:1047E000704790F83C30012B78D010B50446012377
:1047F00080F83C30022380F83D300268936823F44F
:104800007F4323F0770393600B68602B4CD023D851
:10481000402B54D011D8202B03D00AD80BB1102B29
:1048200005D119462068FFF74EFD002028E0012041
:1048300026E0302BF5D0012022E0502B0AD1CA68A7
:1048400049680068FFF718FD50212068FFF73BFD1D
:10485000002015E0012013E0B3F5805F3AD0B3F5F6
:10486000005F14D0702B37D1CB684A688968006824
:10487000FFF7AAFF2268936843F077039360002054
:10488000012384F83D30002384F83C3010BDCB6810
:104890004A6889680068FFF797FF2268936843F4C5
:1048A000804393600020EBE7CA6849680068FFF71F
:1048B000F6FC60212068FFF706FD0020E0E7CA68EB
:1048C00049680068FFF7D8FC40212068FFF7FBFC2F
:1048D0000020D5E70020D3E70120D1E70220704770
:1048E00001F01F014FF0010C0CFA01FC036A23EAEE
:1048F0000C030362036A8A4013430362704700009B
:1049000010B504460846002942D194F83E30DBB287
:10491000013B18BF0123002B6ED1002851D1022387
:1049200084F83E30012201462068FFF7D9FF236852
:10493000334A934203D002F58062934203D15A6C0A
:1049400042F400425A6423682D4A934249D0B3F19D
:10495000804F46D0A2F57C42934242D002F580625D
:1049600093423ED002F5806293423AD002F57842FB
:10497000934236D002F57052934232D0A2F594326F
:1049800093422ED01A6842F001021A60002032E0F1
:10499000042908D008290DD094F84130DBB2013B3E
:1049A00018BF0123B7E794F83F30DBB2013B18BFD3
:1049B0000123B0E794F84030DBB2013B18BF01237C
:1049C000A9E7042805D0082807D0022384F841303D
:1049D000A8E7022384F83F30A4E7022384F840309C
:1049E000A0E79A6802F00702062A07D01A6842F088
:1049F00001021A60002010BD0120FCE70020FAE748
:104A00000000014038B504460D4600220068FFF75B
:104A100067FF23681D4A934218D002F580629342D3
:104A200014D02368196A41F21112114208D1196A8F
:104A300040F24442114203D11A6822F001021A6086
:104A40009DB9012384F83E30002038BD196A41F237
:104A500011121142E5D1196A40F244421142E0D1EB
:104A60005A6C22F400425A64DBE7042D05D0082D6D
:104A700007D0012384F84130E6E7012384F83F3072
:104A8000E2E7012384F84030DEE700BF0000014088
:104A900090F83C20012A3DD010B40346012280F852
:104AA0003C20022280F83D2002685068946820F083
:104AB000700C086840EA0C0050601A681648824280
:104AC0001AD0B2F1804F17D0A0F57C40824213D0AB
:104AD00000F5806082420FD000F5806082420BD0EA
:104AE00000F57840824207D000F57050824203D032
:104AF000A0F59430824204D124F080044968214317
:104B00009160012283F83D20002083F83C005DF88D
:104B1000044B70470220704700000140024690F8A5
:104B20003C30012B21D0012380F83C30CB6823F4AA
:104B300040738868034323F480634868034323F485
:104B400000630868034323F480530869034323F494
:104B500000534869034323F48043C9690B43116838
:104B60004B64002082F83C00704702207047704779
:104B700070470000002800F0E08170B582B0044664
:104B8000036813F0010F3BD09F4B9B6803F00C03AD
:104B9000042B2CD09C4B9B6803F00C03082B21D0DA
:104BA0006368B3F5803F4FD0B3F5A02F52D0964B3A
:104BB0001A6822F480321A601A6822F480221A607D
:104BC0006368002B50D000F04DFD05468E4B1B68EE
:104BD00013F4003F14D100F045FD401B6428F5D9C3
:104BE0000320B1E1884B5B6813F4800FD8D0864B6B
:104BF0001B6813F4003F03D06368002B00F09F8113
:104C0000236813F0020F54D07F4B9B6813F00C0FF6
:104C10003ED07D4B9B6803F00C03082B33D0E36838
:104C2000002B68D0794B01221A6000F01BFD05466D
:104C3000754B1B6813F0020F54D100F013FD401B9D
:104C40000228F5D903207FE16F4A136843F48033CB
:104C50001360B5E76C4B1A6842F480221A601A6838
:104C600042F480321A60ABE700F0FCFC0546664B6C
:104C70001B6813F4003FC3D000F0F4FC401B642811
:104C8000F5D9032060E1604B5B6813F4800FC6D157
:104C90005D4B1B6813F0020F03D0E368012B40F05B
:104CA0005081594A136823F0F803216943EAC1038C
:104CB0001360236813F0080F42D063696BB3534B42
:104CC0000122C3F8802E00F0CDFC05464E4B5B6FF1
:104CD00013F0020F34D100F0C5FC401B0228F5D9B7
:104CE000032031E1484A136823F0F803216943EABD
:104CF000C1031360DDE7454B00221A6000F0B2FCEF
:104D00000546414B1B6813F0020FD2D000F0AAFCFD
:104D1000401B0228F5D9032016E13C4B0022C3F8C2
:104D2000802E00F09FFC0546374B5B6F13F0020F9F
:104D300006D000F097FC401B0228F5D9032003E1C0
:104D4000236813F0040F77D02F4B1B6C13F0805F98
:104D500033D1002301932C4B1A6C42F080521A6419
:104D60001B6C03F080530193019B0125284B1B68AA
:104D700013F4807F23D0A368012B34D0052B38D0C7
:104D8000214B1A6F22F001021A671A6F22F00402F7
:104D90001A67A368002B3DD000F064FC06461A4B4E
:104DA0001B6F13F0020F46D100F05CFC801B41F238
:104DB00088339842F3D90320C6E00025D6E7144A89
:104DC000136843F48073136000F04CFC0646104BEC
:104DD0001B6813F4807FCED100F044FC801B0228B6
:104DE000F5D90320B0E0084A136F43F001031367BD
:104DF000CFE7054B1A6F42F004021A671A6F42F0B0
:104E000001021A67C5E700BF0038024000004742B0
:104E10000070004000F026FC0646524B1B6F13F05A
:104E2000020F08D000F01EFC801B41F2883398422C
:104E3000F3D9032088E0EDB9A369002B00F083804B
:104E4000484A926802F00C02082A51D0022B17D06F
:104E5000454B00221A6600F005FC0446414B1B68D6
:104E600013F0007F42D000F0FDFB001B0228F5D9B3
:104E7000032069E03B4A136C23F080531364DBE7A3
:104E8000394B00221A6600F0EDFB0546354B1B68D6
:104E900013F0007F06D000F0E5FB401B0228F5D997
:104EA000032051E0E369226A1343626A43EA8213F2
:104EB000A26A5208013A43EA0243E26A43EA026301
:104EC000284A5360284B01221A6600F0CBFB0446A7
:104ED000244B1B6813F0007F06D100F0C3FB001BBE
:104EE0000228F5D903202FE000202DE000202BE040
:104EF000012B2BD01B4B5B6803F48001E2699142CC
:104F000026D103F03F02216A8A4223D1616A47F623
:104F1000C0721A40B2EB811F1ED103F44031A26A65
:104F20005208013AB1EB024F18D103F07063E26A04
:104F3000B3EB026F14D1002006E00120704701207E
:104F400002E0012000E0002002B070BD0120FBE77C
:104F50000120F9E70120F7E70120F5E70120F3E759
:104F60000120F1E7003802400000474208B5334B0A
:104F70009B6803F00C03042B5BD0082B5BD12F4BF9
:104F80005A6802F03F025B6813F4800F2CD02B4B61
:104F90005868C0F388104FEA401CBCEB000C6EEB65
:104FA0000E0E4FEA8E1343EA9C634FEA8C11B1EB6D
:104FB0000C0163EB0E03DB0043EA5173C90011EBF4
:104FC000000C43F10003590200234FEA4C2041EA50
:104FD000DC51FDF7CFFF194B5B68C3F3014301338D
:104FE0005B00B0FBF3F008BD144B5868C0F38810A9
:104FF0004FEA401CBCEB000C6EEB0E0E4FEA8E131A
:1050000043EA9C634FEA8C11B1EB0C0163EB0E0396
:10501000DB0043EA5173C90011EB000C43F10003BC
:10502000990200234FEA8C2041EA9C51FDF7A2FF30
:10503000D1E70348D7E70348D5E700BF003802406F
:1050400000127A000024F400002800F09B8070B564
:105050000D4604464F4B1B6803F007038B4208D2F2
:10506000CBB24C4A1370136803F007038B4240F035
:105070008B80236813F0020F17D013F0040F04D0B5
:10508000454A936843F4E0539360236813F0080F94
:1050900004D0414A936843F4604393603E4A936866
:1050A00023F0F003A1680B439360236813F0010F12
:1050B00032D06368012B21D09A1E012A25D9364AA5
:1050C000126812F0020F61D033498A6822F003029D
:1050D00013438B6000F0C6FA06462F4B9B6803F023
:1050E0000C036268B3EB820F16D000F0BBFA801B92
:1050F00041F288339842F0D9032042E0264A1268F0
:1051000012F4003FE0D101203BE0234A126812F084
:10511000007FD9D1012034E01E4B1B6803F0070348
:10512000AB4207D9EAB21B4B1A701B6803F00703A6
:10513000AB422DD1236813F0040F06D0164A9368B2
:1051400023F4E053E1680B439360236813F0080FE6
:1051500007D0114A936823F46043216943EAC103ED
:105160009360FFF703FF0C4B9B68C3F303130B4AD9
:10517000D35CD8400A4B18600A4B186800F026FA36
:10518000002070BD012070470120FAE70120F8E7F8
:105190000120F6E7003C024000380240EC610008C4
:1051A0006400002060000020014B1868704700BFB9
:1051B0006400002008B5FFF7F7FF044B9B68C3F3BA
:1051C0008223034AD35CD84008BD00BF00380240A8
:1051D000E461000808B5FFF7E7FF044B9B68C3F3E1
:1051E0004233034AD35CD84008BD00BF00380240B8
:1051F000E461000800230F2B00F2E98070B582B053
:1052000065E085684FEA430E032404FA0EF425EAAC
:105210000405CC6804FA0EF42C438460446824EA44
:1052200002044A68C2F300129A40224342605CE0E2
:10523000DC08083450F8242003F00705AD004FF0D7
:105240000F0E0EFA05FE22EA0E0E0A69AA4042EA85
:105250000E0240F824205CE0072200E0002202FA5F
:105260000EF22A4302345A4D45F82420594A9468D4
:105270006FEA0C0224EA0C054E6816F4801F01D078
:105280004CEA0405534CA560E46802EA04054E6844
:1052900016F4001F01D04CEA04054E4CE56064682A
:1052A00002EA04054E6816F4003F01D04CEA0405FA
:1052B000484C6560246822404D6815F4803F01D059
:1052C0004CEA0402434C226001330F2B7DD80122AB
:1052D0009A400C6804EA020C32EA0404F4D14C68E7
:1052E00004F00304013C012C8BD94A6802F003024C
:1052F000032A09D0C4685D000322AA4024EA0204FC
:105300008A68AA402243C2604A6802F00302022A65
:105310008ED004684FEA430E032202FA0EF224EA0A
:1053200002044A6802F0030202FA0EF2224302600B
:105330004A6812F4403FC7D000220192264A546CBA
:1053400044F480445464526C02F480420192019A05
:105350009C08A51C1E4A52F8255003F0030E4FEA84
:105360008E0E0F2202FA0EF225EA02051B4A904227
:105370003FF474AF02F5806290421AD002F5806269
:10538000904218D002F58062904216D002F58062F9
:10539000904214D002F58062904212D002F58062F1
:1053A000904210D002F5806290423FF455AF08223F
:1053B00055E7012253E7022251E703224FE7042277
:1053C0004DE705224BE7062249E702B070BD704762
:1053D00000380140003C014000380240000002401B
:1053E0000369194201D001207047002070470AB1BB
:1053F00081617047090481617047000008B5054B61
:105400005B69034200D108BD024B5861FEF76CF89E
:10541000F9E700BF003C014070B50446866D00F01E
:1054200021F994F83530DBB2022B06D08023636576
:10543000002384F83430012070BD054622681368CB
:1054400023F0160313602268536923F0800353612D
:10545000236CE3B12268136823F008031360226809
:10546000136823F00103136023681B6813F0010F16
:1054700011D000F0F7F8431B052BF5D92023636505
:10548000032084F83500002384F83430D4E7A36C7B
:10549000002BDFD1E3E7E26D3F239340B3600123AC
:1054A00084F83530002084F83400C5E790F83530B2
:1054B000DBB2022B03D08023436501207047052314
:1054C00080F835300268136823F001031360002070
:1054D00070470000002807DB00F01F02400901238D
:1054E0009340024A42F82030704700BF00E100E0DC
:1054F000002808DB0901C9B200F1604000F56140F5
:1055000080F80013704700F00F000901C9B2014B89
:105510001954704714ED00E000B500F00700C0F129
:10552000070CBCF1040F28BF4FF0040C031D062B21
:105530000FD9C31E4FF0FF3E0EFA0CF021EA000116
:1055400099400EFA03FE22EA0E0241EA02005DF8DB
:1055500004FB0023EEE70000074AD36823F4E0636E
:105560001B041B0C000200F4E060034343F0BF6324
:1055700043F40033D360704700ED00E010B50446FB
:10558000054BD868C0F30220FFF7C6FF014620464E
:10559000FFF7AEFF10BD00BF00ED00E008B5FFF75C
:1055A00099FF08BD0138B0F1807F0BD24FF0E023A6
:1055B0005861054AF02182F82310002098610722E3
:1055C0001A6170470120704700ED00E010B50446F5
:1055D0000E4B1A784FF47A73B3FBF2F30C4A10684F
:1055E000B0FBF3F0FFF7DEFF68B90F2C01D9012003
:1055F0000AE0002221464FF0FF30FFF7BFFF054BC6
:105600001C60002000E0012010BD00BF5C000020F5
:10561000640000206000002008B50B4B1A6842F4BB
:1056200000721A601A6842F480621A601A6842F4C2
:1056300080721A600320FFF78FFF0F20FFF7C6FF6D
:10564000FEF7CCFB002008BD003C0240034A116875
:10565000034B1B780B441360704700BF7804002095
:105660005C000020014B1868704700BF78040020E0
:10567000026802F10C0353E8003F23F490730C32EC
:1056800042E800310029F3D1026802F1140353E823
:10569000003F23F00103143242E800310029F3D126
:1056A000036B012B05D0202380F8423000230363D5
:1056B0007047026802F10C0353E8003F23F0100327
:1056C0000C3242E800310029F3D1ECE790F8413088
:1056D000DBB2212B01D0022070478368B3F5805FD5
:1056E00017D0036A5A1C02621A7803685A60C38C86
:1056F0009BB2013B9BB2C3844BB90268D36823F0D1
:105700008003D3600268D36843F04003D360002075
:1057100070470369002BE4D1036A1B880268C3F356
:1057200008035360036A02330362E0E710B50446DE
:105730000268136923F44053C1680B431361836803
:1057400002691A4343691A43C3691A430168CB6863
:1057500023F4164323F00C031343CB600268536910
:1057600023F4407381690B4353610368314A9342C8
:1057700006D002F58062934202D0FFF71BFD01E0E4
:10578000FFF728FDE369B3F5004F29D00021031886
:1057900049411B1841F10001C90041EA5371DB0086
:1057A000181863684FEA83024FEA937341F10001CE
:1057B000FDF7E0FB204AA2FB00314909642303FB0B
:1057C00011031B013233A2FB03235B0903F0F00238
:1057D00002EB011203F00F03216813448B6010BD2C
:1057E0000023021843EB0301121841F10001C90024
:1057F00041EA5271D200101841F10001626892181A
:105800005B41FDF7B7FB0C4AA2FB00314909642359
:1058100003FB1103DB003233A2FB03235B095A00B5
:1058200002F4F87202EB011203F00703216813443B
:105830008B60D4E7001001401F85EB5160B310B5B9
:10584000044690F8413013B3242384F84130226891
:10585000D36823F40053D3602046FFF767FF226824
:10586000136923F4904313612268536923F02A03D8
:1058700053612268D36843F40053D360002060640E
:10588000202384F8413084F84230606310BD80F8F2
:105890004030FEF719FCD7E70120704790F84130FF
:1058A000DBB2202B10D189B192B101628284C28413
:1058B00000234364212280F841200168CA6842F035
:1058C0008002CA6018467047022070470120704766
:1058D0000120704708B50168CA6822F04002CA601A
:1058E000202280F84120FDF7FDFD002008BD704713
:1058F00008B5806B0023C385FFF7F9FF08BD70472B
:1059000090F84230DBB2222B69D18368B3F5805F17
:105910004FD0826AB3F5805F04D0002B56D1036963
:10592000002B53D103685B681370836A0133836271
:10593000C38D9BB2013B9BB2C385002B51D100B5F7
:1059400083B00268D36823F02003D3600268D36871
:1059500023F48073D3600268536923F00103536119
:10596000202380F8423000234363036B012B33D1A3
:1059700000230363026802F10C0353E8003F23F0A5
:1059800010030C3242E800310029F3D103681A6891
:1059900012F0100F06D0002201921A6801925B6883
:1059A0000193019B818DFFF7AAFF002003B05DF8F2
:1059B00004FB0269002AACD1826A03685B68C3F306
:1059C00008031380836A02338362B1E703685B686C
:1059D00003F07F031370A8E7FDF7F4FCE5E702206E
:1059E000704700207047000010B582B0044602687E
:1059F0001368D068516913F00F0F09D113F0200F0D
:105A00000CD010F0200F09D02046FFF779FF16E0E8
:105A100011F0010115D110F4907F12D1216B0129F1
:105A200079D013F0800F03D010F0800F40F0218167
:105A300013F0400F03D010F0400F40F01E8102B071
:105A400010BD13F0010F06D010F4807F03D0626CFC
:105A500042F00102626413F0040F04D019B1626CC9
:105A600042F00202626413F0020F04D019B1626CBA
:105A700042F00402626413F0080F07D010F0200F08
:105A800000D119B1626C42F008026264626C002AB3
:105A9000D5D013F0200F02D010F0200F29D12368A9
:105AA0005B6903F04003626C12F0080F00D163B32E
:105AB0002046FFF7DDFD23685B6913F0400F20D01F
:105AC000226802F1140353E8003F23F0400314322C
:105AD00042E800310029F3D1E36B73B1694A1A65DA
:105AE000E06BFFF7E3FC0028A9D0E06B036D98475B
:105AF000A5E72046FFF704FFD1E72046FFF7F7FEB2
:105B00009DE72046FFF7F3FE99E72046FFF7EFFEFB
